:100000000C947C000C94A4000C94A4000C94A40008
:100010000C94A4000C94A4000C94A4000C94A400D0
:100020000C94A4000C94A4000C94A4000C94A400C0
:100030000C94A4000C94A4000C94A4000C94A400B0
:100040000C947F030C94A4000C94C6060C94F80640
:100050000C94A4000C94A4000C94A4000C94A40090
:100060000C94A4000C94A4000000000800020100FD
:100070000003040700000000000000000102040863
:100080001020408001020408102001020408102002
:10009000040404040404040402020202020203032E
:1000A0000303030300000000250028002B000000CC
:1000B0000000240027002A004E414E494E49545961
:1000C000494E46CDCCCC3D0AD7233C17B7D1387723
:1000D000CC2B329595E6241FB14F0A000020410039
:1000E00000C84200401C4620BCBE4CCA1B0E5AAE83
:1000F000C59D7400C700280711241FBECFEFD8E0AC
:10010000DEBFCDBF12E0A0E0B1E0EEE5F2E202C05A
:1001100005900D92A03EB107D9F723E0A0EEB2E022
:1001200001C01D92A93EB207E1F710E0C8EFD0E090
:1001300004C02297FE010E941C0DC43FD107C9F7DD
:100140000E946C070C942D110C94000026E040E0F6
:1001500052EC61E070E086E493E00E9464066BE09C
:1001600071E086E493E00E94C60768EE73E080E0E9
:1001700090E00C94F8038EE193E00E94A9018FEFC8
:1001800092E00E94A90180EE92E00C94A901CF9226
:10019000EF92FF920F931F93CC24C39483E0E82E39
:1001A000F12C05E010E025E030E044E050E063E0B1
:1001B00070E08EE193E00E94690104E010E028E025
:1001C00030E047E050E066E070E08FEF92E00E94A0
:1001D000690103E010E02BE030E04AE050E069E024
:1001E00070E080EE92E00E9469011F910F91FF90F4
:1001F000EF90CF9008950F931F93CF93DF9300D08C
:1002000000D000D0CDB7DEB786E493E00E949A0517
:10021000182F86E493E00E949A05082F62ED72E0A1
:10022000CE0101960E94330A65E070E080E090E024
:100230000E94F80386E493E00E948105892B31F047
:1002400086E493E00E949A05843269F4123389F0BF
:100250001333C1F01133E9F4AE014F5F5F4F602FEC
:100260008EE193E00CC0682FCE0101960E94750AC2
:10027000DBCFAE014F5F5F4F602F8FEF92E00E94A8
:10028000480218C0AE014F5F5F4F602F80EE92E0D2
:10029000F6CF60E271E086E493E00E94B907612F37
:1002A00086E493E00E94BB0768E271E086E493E095
:1002B0000E94B907CE0101960E94C50926960FB685
:1002C000F894DEBF0FBECDBFDF91CF911F910F918C
:1002D0000895CF92EF92FF920F931F93CF93DF93E6
:1002E000EC01862F688379835B834A833D832C836B
:1002F0001F830E83FD8AEC8ACE8E1B8E1A8E1E8A79
:100300001F8A188E198E22E330E03D8F2C8F2FEF3D
:100310003FEF398B288B61E00E94120561E08A81F2
:100320000E94120561E08C810E94120560E08881C4
:100330000E944B0560E08A810E944B0560E08C8141
:10034000DF91CF911F910F91FF90EF90CF900C9480
:100350004B05CF92DF92EF92FF920F931F93CF93B3
:10036000DF93EC010E94C903688779878A879B879E
:100370002E8D222309F441C00C851D852E853F85D5
:100380006B017C01C01AD10AE20AF30A49EEC416D5
:1003900043E0D406E104F10480F16C877D878E8709
:1003A0009F8761E471E086E493E00E94B907688961
:1003B00079894AE050E086E493E00E94710868E49D
:1003C00071E086E493E00E94B9076A897B894AE07C
:1003D00050E086E493E00E9471086DE571E086E4E8
:1003E00093E00E94B9078E810E946D044AE050E0BC
:1003F000BC0186E493E00E9479088E810E946D041E
:100400004A895B892C893D89BA01621B730B861767
:10041000970784F461E08A810E944B0560E08C813B
:100420000E944B056C8D7D8D88810E948A04198AFB
:10043000188A25C0240F351F60E0281739077CF47F
:100440008A810E944B0561E08C810E944B056C8D76
:100450007D8D88810E948A0481E090E00EC08A81AF
:100460000E944B0560E08C810E944B0560E070E0CB
:1004700088810E948A0482E090E0998B888BDF91CA
:10048000CF911F910F91FF90EF90DF90CF90089543
:10049000AF92BF92CF92DF92EF92FF920F931F9392
:1004A000CF93DF93EC01162FCA01603709F4D7C050
:1004B0001CF4643641F008C1633709F467C064373F
:1004C00009F4C0C001C10E94930A6B017C016E8BCC
:1004D0007F8B888F998F20E030E0A9010E94040B68
:1004E00087FD0AC020E030E048EC52E4C701B601C5
:1004F0000E94530C18161CF464E771E0F2C0C701A7
:10050000B6010E94700B1F921F921F922EEF2F9325
:10051000A12CB12C650114E6E12EF12C00E010E0D5
:1005200020E030E0A9010E947E097B8B6A8B6DEA96
:1005300071E086E493E00E94B9074E895F89688D77
:10054000798D22E030E086E493E00E947C0968E443
:1005500071E086E493E00E94B9076A897B894AE0EA
:1005600050E086E493E00E94710864EC71E086E458
:1005700093E00E94B9078E810E946D040F900F9046
:100580000F900F904AE050E0BC014EC00E94880AD4
:100590007B8F6A8F6536710598F060ED71E086E4B7
:1005A00093E00E94C6071D8E1C8EDF91CF911F9194
:1005B0000F91FF90EF90DF90CF90BF90AF90089594
:1005C000882777FD8095982F1F921F921F922FEFFB
:1005D0002F93A12CB12C650114E6E12EF12C00E043
:1005E00010E020E030E0A9010E947E097D8F6C8F31
:1005F0006FEF71E086E493E00E94B9076A8D7B8D0E
:100600004AE050E086E493E00E9471086BE072E0FB
:1006100086E493E00E94B9070F900F900F900F901F
:100620006C8D7D8D4AE050E086E493E0DF91CF91C0
:100630001F910F91FF90EF90DF90CF90BF90AF9000
:100640000C9479080E94880A7D8B6C8B6B30710545
:1006500018F06FE172E045C061E572E02EC064E61B
:1006600072E086E493E00E94B9076A897B894AE0D8
:1006700050E086E493E00E94710867E772E086E448
:1006800093E00E94B9078E810E946D044AE050E019
:10069000BC0186E493E00E9471086CE872E086E495
:1006A00093E00E94B9076C8D7D8D4AE050E086E4AE
:1006B00093E00E94710866E972E086E493E00E948C
:1006C000B9076C897D89AECF64EA72E086E493E075
:1006D0000E94B907612F86E493E00E94BB076FEA8E
:1006E00072E086E493E0DF91CF911F910F91FF902C
:1006F000EF90DF90CF90BF90AF900C94C6071F9201
:100700000F920FB60F9211242F933F938F939F93C5
:10071000AF93BF9380913E0390913F03A09140031C
:10072000B091410330913D0323E0230F2D3720F496
:100730000196A11DB11D05C026E8230F0296A11D3B
:10074000B11D20933D0380933E0390933F03A093FC
:100750004003B09341038091420390914303A091E1
:100760004403B09145030196A11DB11D809342033E
:1007700090934303A0934403B0934503BF91AF917B
:100780009F918F913F912F910F900FBE0F901F90CF
:1007900018952FB7F89460913E0370913F038091B4
:1007A0004003909141032FBF08953FB7F894809183
:1007B000420390914303A0914403B091450326B5B1
:1007C000A89B05C02F3F19F00196A11DB11D3FBF89
:1007D0006627782F892F9A2F620F711D811D911D19
:1007E00042E0660F771F881F991F4A95D1F7089539
:1007F0008F929F92AF92BF92CF92DF92EF92FF9231
:100800006B017C010E94D5034B015C01C114D10432
:10081000E104F104F1F00E949E0A0E94D5036819D8
:1008200079098A099B09683E73408105910570F337
:1008300021E0C21AD108E108F10888EE880E83E0B1
:10084000981EA11CB11CC114D104E104F10429F7C4
:10085000DDCFFF90EF90DF90CF90BF90AF909F9053
:100860008F900895789484B5826084BD84B581604A
:1008700084BD85B5826085BD85B5816085BDEEE6A8
:10088000F0E0808181608083E1E8F0E01082808187
:1008900082608083808181608083E0E8F0E08081F5
:1008A00081608083E1EBF0E0808184608083E0EB15
:1008B000F0E0808181608083EAE7F0E080818460FD
:1008C0008083808182608083808181608083808159
:1008D000806880831092C10008958E3008F08E5099
:1008E000877020910A0190E4299F90011124822BA6
:1008F00080937C0080917A00806480937A0080915C
:100900007A0086FDFCCF809178002091790090E0FC
:10091000922B08951F93CF93DF93182FEB0161E083
:100920000E941205209711F460E004C0CF3FD1056A
:1009300039F461E0812FDF91CF911F910C944B0529
:10094000E12FF0E0E859FF4FE491E330F9F048F48B
:10095000E130B9F0E230A1F584B5806284BDC8BD54
:1009600034C0E730E9F0E83019F1E43049F580911E
:100970008000806280938000D0938B00C0938A00B7
:1009800024C084B5806884BDC7BD1FC0809180002D
:10099000806880938000D0938900C093880015C040
:1009A0008091B00080688093B000C093B3000DC008
:1009B0008091B00080628093B000C093B40005C005
:1009C000C038D1050CF0B5CFAFCFDF91CF911F91DB
:1009D0000895833081F028F4813099F08230A1F0BD
:1009E00008958730A9F08830B9F08430D1F480912F
:1009F00080008F7D03C0809180008F77809380007E
:100A0000089584B58F7702C084B58F7D84BD089525
:100A10008091B0008F7703C08091B0008F7D80936C
:100A2000B0000895CF93DF9390E0FC01E458FF4FAE
:100A30002491FC01E057FF4F8491882349F190E015
:100A4000880F991FFC01E255FF4FA591B4918C5579
:100A50009F4FFC01C591D4919FB7611108C0F894D4
:100A60008C91209582238C93888182230AC06230E6
:100A700051F4F8948C91322F309583238C93888194
:100A8000822B888304C0F8948C91822B8C939FBF17
:100A9000DF91CF9108950F931F93CF93DF931F9210
:100AA000CDB7DEB7282F30E0F901E859FF4F849128
:100AB000F901E458FF4F1491F901E057FF4F0491F9
:100AC0000023C9F0882321F069830E94E904698129
:100AD000E02FF0E0EE0FFF1FEC55FF4FA591B49112
:100AE0009FB7F8948C91611103C01095812301C0C8
:100AF000812B8C939FBF0F90DF91CF911F910F910E
:100B00000895FC01818D228D90E0805C9F4F821BB7
:100B100091098F7399270895FC01918D828D981703
:100B200031F0828DE80FF11D858D90E008958FEFF3
:100B30009FEF0895FC01918D828D981761F0828D51
:100B4000DF01A80FB11D5D968C91928D9F5F9F7301
:100B5000928F90E008958FEF9FEF08958EE197E0D8
:100B6000892B49F08BEF90E0892B29F00E941E071A
:100B700081110C94FB000895FC01848DDF01A80F06
:100B8000B11DA35ABF4F2C91848D90E001968F73B5
:100B90009927848FA689B7892C93A089B1898C91D4
:100BA00080648C93938D848D981306C00288F3899A
:100BB000E02D80818F7D80830895CF93DF93EC01BA
:100BC000888D8823C9F0EA89FB89808185FD05C06D
:100BD000A889B9898C9186FD0FC00FB607FCF5CFA7
:100BE000808185FFF2CFA889B9898C9185FFEDCFEF
:100BF000CE010E94BC05E7CFDF91CF910895CF923F
:100C0000DF92FF920F931F93CF93DF931F92CDB785
:100C1000DEB76C0181E0D60158968C9358975B96AD
:100C20009C915B975C968C915C97981307C050964B
:100C3000ED91FC915197808185FD2EC0F601038DC9
:100C400010E00F5F1F4F0F731127F02EF601848DF8
:100C5000F81211C00FB607FCF9CFD6015096ED91EE
:100C6000FC915197808185FFF1CFC60169830E9475
:100C7000BC056981EBCF838DE80FF11DE35AFF4F6F
:100C80006083D6015B960C935B975296ED91FC9135
:100C90005397808180620CC0D6015696ED91FC91ED
:100CA000579760835096ED91FC91519780818064B5
:100CB000808381E090E00F90DF91CF911F910F91A1
:100CC000FF90DF90CF900895BF92CF92DF92EF9286
:100CD000FF92CF93DF93EC016A017B01B22EE8898A
:100CE000F98982E08083411581EE5807610571051D
:100CF000A1F060E079E08DE390E0A70196010E9409
:100D0000CE0C215031094109510956954795379527
:100D10002795211580E1380798F0E889F989108234
:100D200060E874E88EE190E0A70196010E94CE0C85
:100D30002150310941095109569547953795279515
:100D4000EC85FD853083EE85FF852083188EEC8948
:100D5000FD89B082EA89FB89808180618083EA898C
:100D6000FB89808188608083EA89FB898081806833
:100D70008083EA89FB8980818F7D8083DF91CF9199
:100D8000FF90EF90DF90CF90BF9008951F920F9249
:100D90000FB60F9211242F938F939F93EF93FF938E
:100DA000E0915603F09157038081E0915C03F0914C
:100DB0005D0382FD12C0908180915F038F5F8F730E
:100DC00020916003821751F0E0915F03F0E0EA5B4D
:100DD000FC4F958F80935F0301C08081FF91EF915D
:100DE0009F918F912F910F900FBE0F901F9018958C
:100DF0001F920F920FB60F9211242F933F934F9390
:100E00005F936F937F938F939F93AF93BF93EF9372
:100E1000FF9386E493E00E94BC05FF91EF91BF91A0
:100E2000AF919F918F917F916F915F914F913F9182
:100E30002F910F900FBE0F901F90189586E493E0AE
:100E40000E94810521E0892B09F420E0822F08957A
:100E5000109249031092480388EE93E0A0E0B0E0BE
:100E600080934A0390934B03A0934C03B0934D039C
:100E700084EC92E0909347038093460385EC90E0E6
:100E8000909353038093520384EC90E09093550326
:100E90008093540380EC90E0909357038093560323
:100EA00081EC90E0909359038093580382EC90E09A
:100EB00090935B0380935A0386EC90E090935D03DC
:100EC00080935C0310925F031092600310926103A1
:100ED00010926203089508950E9432040E946B07E5
:100EE0000E94A600CEEAD5E00E94BB002097E1F365
:100EF0000E94AE05F9CFCF92DF92EF92FF920F934F
:100F00001F93CF93DF937C016A01EB0100E010E0B7
:100F10000C151D0571F06991D701ED91FC910190BF
:100F2000F081E02DC7010995892B19F00F5F1F4F44
:100F3000EFCFC801DF91CF911F910F91FF90EF90FC
:100F4000DF90CF9008956115710581F0DB010D9060
:100F50000020E9F7AD0141505109461B570BDC0158
:100F6000ED91FC910280F381E02D099480E090E006
:100F700008950C94A307DC01ED91FC910190F081A0
:100F8000E02D099460ED72E00C94A3070F931F937A
:100F9000CF93DF93EC010E94A3078C01CE010E9446
:100FA000C207800F911FDF91CF911F910F9108957C
:100FB0008F929F92AF92BF92DF92EF92FF920F9328
:100FC0001F93CF93DF93CDB7DEB7A1970FB6F894F9
:100FD000DEBF0FBECDBF7C01F42FD52ECB0119A2F1
:100FE000223008F42AE08E010F5D1F4F822E912CD3
:100FF000A12CB12C6F2F7D2DA50194010E94CE0C48
:10100000F22FD32ECA01015011096A3014F4E0E323
:1010100001C0E7E3E60FD801EC93232B242B252B0B
:1010200049F7B801C7010E94A307A1960FB6F8942B
:10103000DEBF0FBECDBFDF91CF911F910F91FF900B
:10104000EF90DF90BF90AF909F908F900895CF92D8
:10105000DF92EF92FF920F931F93CF93DF93EC01F8
:101060006A017B012115310579F4E881F98101904C
:10107000F081E02D642FDF91CF911F910F91FF90B0
:10108000EF90DF90CF9009942A303105E9F477FF93
:101090001AC06DE20E94BB078C0144275527BA0194
:1010A0004C195D096E097F092AE0CE010E94D8071C
:1010B000800F911FDF91CF911F910F91FF90EF90C3
:1010C000DF90CF9008952AE0B701A601CE01DF910D
:1010D000CF911F910F91FF90EF90DF90CF900C94E4
:1010E000D8079A01AB01662757FD6095762F0C94BF
:1010F00027080F931F93CF93DF93EC019A01AB0165
:10110000662757FD6095762F0E9427088C01CE0137
:101110000E94C207800F911FDF91CF911F910F9105
:1011200008954F925F926F927F928F929F92AF92AB
:10113000BF92CF92DF92EF92FF920F931F93CF93C4
:10114000DF93EC016A017B01B22E9A01AB01C7016A
:10115000B6010E94BA0C882319F063ED72E027C033
:1011600026013701E89477F82FEF3FEF4FE75FE76D
:10117000C301B2010E94BA0C81110DC02FEF3FEFE5
:101180004FE75FE7C301B2010E94040B18161CF47D
:1011900067ED72E00CC02FEF3FEF4FE75FE4C70150
:1011A000B6010E94530C1816ACF46BED72E0CE0140
:1011B000DF91CF911F910F91FF90EF90DF90CF9033
:1011C000BF90AF909F908F907F906F905F904F9067
:1011D0000C94A3072FEF3FEF4FE75FECC701B60179
:1011E0000E94040B87FDE1CF20E030E0A901C70198
:1011F000B6010E94040B87FF0AC06DE2CE010E9477
:10120000BB078C01F7FAF094F7F8F09402C000E005
:1012100010E0A12C60E070E080E09FE3AB1441F0AF
:1012200020E030E040E251E40E94080BA394F6CFA6
:101230009B01AC01C701B6010E94A00A6B017C01B1
:101240000E94750B2B013C010E94A10B9B01AC017C
:10125000C701B6010E949F0A6B017C012AE0B3011D
:10126000A201CE010E94D807080F191FBB2039F038
:101270006DEF71E0CE010E94A307080F191F7B2CB0
:10128000772041F120E030E040E251E4C701B601AF
:101290000E94570C6B017C010E94700B4B01AA2429
:1012A00097FCA094BA2C2AE030E0B501A401CE014D
:1012B0000E942708080F191FC501B4010E94A30B43
:1012C0009B01AC01C701B6010E949F0A6B017C0122
:1012D0007A94D6CFC801DF91CF911F910F91FF90E3
:1012E000EF90DF90CF90BF90AF909F908F907F90C6
:1012F0006F905F904F9008950C9491084F925F9279
:101300006F927F92AF92BF92CF92DF92EF92FF9255
:101310000F931F93CF93DF93CDB7DEB729013A0127
:10132000621B730B840B950B29893A894B895C8965
:101330002A193B094C095D09298B3A8B4B8B5C8B35
:101340009B01AC0169897A898B899C890E94BE0CBA
:10135000E418F50806091709A80197010E94F00C86
:101360002A0D3B1D4C1D5D1DCA01B901DF91CF91B6
:101370001F910F91FF90EF90DF90CF90BF90AF90B3
:101380007F906F905F904F900895FC0180819181D4
:101390000C94C70DCF93DF93EC018881998100975E
:1013A00011F00E94C70D198218821D821C821B82B7
:1013B0001A82DF91CF9108950F931F93CF93DF93FC
:1013C000EC018B016F5F7F4F888199810E94560EDF
:1013D000009731F0998388831B830A8381E001C0E1
:1013E00080E0DF91CF911F910F910895CF93DF930C
:1013F000EC0188819981892B29F08A819B8186174C
:10140000970760F4CE010E94DC09882341F08C81AB
:101410009D81892B19F4E881F981108281E0DF91A7
:10142000CF910895EF92FF920F931F93CF93DF9385
:10143000EC017B018A01BA010E94F609811104C006
:10144000CE010E94CA0907C01D830C83B7018881A1
:1014500099810E945C0FCE01DF91CF911F910F9176
:10146000FF90EF900895FC01118210821382128286
:10147000158214826115710559F0FB01019000205D
:10148000E9F7AF0141505109461B570B0C94120A62
:101490000895EF92FF920F931F93CF93DF93EC0188
:1014A0007B010C811D816115710511F480E016C06E
:1014B0004115510591F0040F151FB8010E94F6095E
:1014C0008823A1F3288139818C819D81B701820F06
:1014D000931F0E945C0F1D830C8381E0DF91CF91ED
:1014E0001F910F91FF90EF900895CF93DF9300D05D
:1014F000CDB7DEB769831A8241E050E0BE016F5F6D
:101500007F4F0E94490A0F900F90DF91CF9108956D
:10151000FC0180819181009711F00C94240F60E010
:1015200070E0CB010895FC0180819181009711F05A
:101530000C94200F60E070E0CB010895089550589E
:10154000BB27AA270ED075C166D130F06BD120F031
:1015500031F49F3F11F41EF45BC10EF4E095E7FBFC
:1015600051C1E92F77D180F3BA1762077307840757
:10157000950718F071F49EF58FC10EF4E0950B2ECF
:10158000BA2FA02D0B01B90190010C01CA01A001D5
:101590001124FF27591B99F0593F50F4503E68F130
:1015A0001A16F040A22F232F342F4427585FF3CF71
:1015B000469537952795A795F0405395C9F77EF442
:1015C0001F16BA0B620B730B840BBAF09150A1F08B
:1015D000FF0FBB1F661F771F881FC2F70EC0BA0F11
:1015E000621F731F841F48F4879577956795B79599
:1015F000F7959E3F08F0B3CF9395880F08F0992791
:10160000EE0F979587950895D9D008F481E0089555
:101610000CD00FC107D140F0FED030F021F45F3F75
:1016200019F0F0C0511139C1F3C014D198F39923C6
:10163000C9F35523B1F3951B550BBB27AA27621796
:101640007307840738F09F5F5F4F220F331F441FDB
:10165000AA1FA9F333D00E2E3AF0E0E830D0915013
:101660005040E695001CCAF729D0FE2F27D0660F00
:10167000771F881FBB1F261737074807AB07B0E83F
:1016800009F0BB0B802DBF01FF2793585F4F2AF055
:101690009E3F510568F0B6C000C15F3FECF3983E35
:1016A000DCF3869577956795B795F7959F5FC9F7B2
:1016B000880F911D9695879597F90895E1E0660F3B
:1016C000771F881FBB1F621773078407BA0720F0B4
:1016D000621B730B840BBA0BEE1F88F7E09508951D
:1016E00004D06894B111D9C00895BCD088F09F5738
:1016F00090F0B92F9927B751A0F0D1F0660F771F5E
:10170000881F991F1AF0BA95C9F712C0B13081F03D
:10171000C3D0B1E00895C0C0672F782F8827B85F85
:1017200039F0B93FCCF3869577956795B395D9F79E
:101730003EF490958095709561957F4F8F4F9F4FA8
:101740000895E89409C097FB3EF4909580957095B4
:1017500061957F4F8F4F9F4F9923A9F0F92F96E9FD
:10176000BB279395F695879577956795B795F11172
:10177000F8CFFAF4BB0F11F460FF1BC06F5F7F4F0F
:101780008F4F9F4F16C0882311F096E911C0772321
:1017900021F09EE8872F762F05C0662371F096E82A
:1017A000862F70E060E02AF09A95660F771F881FF9
:1017B000DAF7880F9695879597F90895990F00089D
:1017C000550FAA0BE0E8FEEF16161706E807F90713
:1017D000C0F012161306E407F50798F0621B730BAE
:1017E000840B950B39F40A2661F0232B242B252B2F
:1017F00021F408950A2609F4A140A6958FEF811DD2
:10180000811D089597F99F6780E870E060E0089572
:101810009FEF80EC089500240A9416161706180608
:101820000906089500240A941216130614060506E4
:101830000895092E0394000C11F4882352F0BB0F75
:1018400040F4BF2B11F460FF04C06F5F7F4F8F4FD8
:101850009F4F089557FD9058440F551F59F05F3F13
:1018600071F04795880F97FB991F61F09F3F79F0C2
:1018700087950895121613061406551FF2CF469544
:10188000F1DF08C0161617061806991FF1CF8695C6
:101890007105610508940895E894BB2766277727AA
:1018A000CB0197F908958ADF08F48FEF08950BD0E4
:1018B000C0CFB1DF28F0B6DF18F0952309F0A2CF32
:1018C000A7CF1124EACFC6DFA0F3959FD1F3950FE0
:1018D00050E0551F629FF001729FBB27F00DB11DB4
:1018E000639FAA27F00DB11DAA1F649F6627B00D44
:1018F000A11D661F829F2227B00DA11D621F739F2D
:10190000B00DA11D621F839FA00D611D221F749F3A
:101910003327A00D611D231F849F600D211D822F81
:10192000762F6A2F11249F5750408AF0E1F08823C8
:101930004AF0EE0FFF1FBB1F661F771F881F9150D5
:101940005040A9F79E3F510570F05CCFA6CF5F3F96
:10195000ECF3983EDCF3869577956795B795F79508
:10196000E7959F5FC1F7FE2B880F911D9695879590
:1019700097F9089523DF880B990B0895DB018F9366
:101980009F930E940F0DBF91AF91A29F800D911D5B
:10199000A39F900DB29F900D11240895A1E21A2EDD
:1019A000AA1BBB1BFD010DC0AA1FBB1FEE1FFF1F03
:1019B000A217B307E407F50720F0A21BB30BE40B53
:1019C000F50B661F771F881F991F1A9469F760959A
:1019D0007095809590959B01AC01BD01CF01089554
:1019E000052E97FB1EF400940E94070D57FD07D0AB
:1019F0000E94CE0C07FC03D04EF40C94070D5095BA
:101A00004095309521953F4F4F4F5F4F08959095EA
:101A10008095709561957F4F8F4F9F4F08950E94DD
:101A2000200DA59F900DB49F900DA49F800D911D3A
:101A300011240895EE0FFF1F0590F491E02D0994F5
:101A4000A29FB001B39FC001A39F700D811D1124FF
:101A5000911DB29F700D811D1124911D0895CF938A
:101A6000DF938230910510F482E090E0E091E5038D
:101A7000F091E60320E030E0A0E0B0E0309739F1EB
:101A80004081518148175907B8F04817590771F438
:101A900082819381109729F013969C938E931297CD
:101AA0002CC09093E6038093E50327C021153105F0
:101AB00031F04217530718F0A901DB0101C0EF0113
:101AC0009A01BD01DF010280F381E02DD7CF2115FE
:101AD0003105F9F0281B390B2430310580F48A8157
:101AE0009B816115710521F0FB019383828304C002
:101AF0009093E6038093E503FE01329644C0FE0115
:101B0000E20FF31F81939193225031093983288387
:101B10003AC02091E3033091E403232B41F4209158
:101B20000201309103013093E4032093E3032091F9
:101B30000001309101012115310541F42DB73EB767
:101B40004091040150910501241B350BE091E30302
:101B5000F091E403E217F307A0F42E1B3F0B2817C4
:101B6000390778F0AC014E5F5F4F2417350748F016
:101B70004E0F5F1F5093E4034093E30381939193CF
:101B800002C0E0E0F0E0CF01DF91CF910895CF9364
:101B9000DF93009709F487C0FC0132971382128209
:101BA000C091E503D091E603209781F42081318133
:101BB000280F391F8091E3039091E4038217930764
:101BC00079F5F093E403E093E3036DC0DE0120E0D8
:101BD00030E0AE17BF0750F412964D915C91139709
:101BE0009D014115510509F1DA01F3CFB383A283B9
:101BF00040815181840F951F8A179B0771F48D9145
:101C00009C911197840F951F029691838083129661
:101C10008D919C911397938382832115310529F42B
:101C2000F093E603E093E5033EC0D9011396FC93DD
:101C3000EE9312974D915D91A40FB51FEA17FB0724
:101C400079F480819181840F951F0296D9011196B4
:101C50009C938E938281938113969C938E9312977B
:101C6000E0E0F0E08A819B81009719F0FE01EC0131
:101C7000F9CFCE01029628813981820F931F2091DE
:101C8000E3033091E4032817390769F4309729F406
:101C90001092E6031092E50302C013821282D093E1
:101CA000E403C093E303DF91CF910895A0E0B0E097
:101CB000ECE5FEE00C94FA10EC01CB01209719F44E
:101CC0000E942F0DB8C0FE01E60FF71F9E012250A3
:101CD0003109E217F30708F4ACC0D9010D911C914A
:101CE000119706171707B8F00530110508F49FC0C3
:101CF000A801445051094617570708F498C00250EC
:101D00001109061B170B019311936D937C93CF015F
:101D10000E94C70D8CC05B01A01AB10A4E01800E53
:101D2000911EA091E503B091E603612C712C60E057
:101D300070E0109709F449C0A815B905C9F5ED90F0
:101D4000FC901197670142E0C40ED11CCA14DB0459
:101D500078F147018A189B08640142E0C40ED11C47
:101D60001296BC9012971396AC91B5E0CB16D104A5
:101D700040F0B282A38391828082D9018D939C939B
:101D800009C00E5F1F4F0E0D1F1DF9011183008347
:101D9000EB2DFA2F6115710531F0DB011396FC93E1
:101DA000EE93129744C0F093E603E093E5033FC03F
:101DB0006D917C9111976616770608F43B01BD0181
:101DC00012960D90BC91A02DB4CF6091E303709159
:101DD000E40368157905E9F468167906D0F44091B2
:101DE0000001509101014115510541F44DB75EB715
:101DF0006091040170910501461B570BE417F5072C
:101E0000C0F4F093E403E093E303F901918380834A
:101E10000EC00E942F0D7C01009759F0A801BE0151
:101E20000E94530FCE010E94C70DC70104C0CE010E
:101E300002C080E090E0CDB7DEB7EEE00C94161162
:101E4000662777270C94780F1F93FC019927882722
:101E5000BC01E89411911032E9F3193010F01E30F2
:101E6000C8F31B3251F01D3249F4689406C00E9439
:101E7000630F610F711D811D911D119110531A3057
:101E8000B0F33EF490958095709561957F4F8F4F9C
:101E90009F4F1F91089591118EC1803219F0895082
:101EA0008550D0F70895FB01DC0102C001900D922E
:101EB00041505040D8F70895FB01DC0101900D928C
:101EC0000020E1F70895592F482F372F262F660F4E
:101ED000771F881F991F660F771F881F991F620F32
:101EE000731F841F951F660F771F881F991F089502
:101EF000A0E0B0E0EEE7FFE00C94FC108B01611570
:101F0000710521F0DB018C9311969C93EC015E012D
:101F1000BFEFAB1ABB0A7501C8808C2D90E00E9400
:101F20004B0F892B11F0E501F2CFEDE2CE1208C084
:101F30007E01F2E0EF0EF11CC980DD24D39409C0CC
:101F40002BE2C21205C07E0142E0E40EF11CC98002
:101F5000D12CE701219743E050E060EC70E0CE0126
:101F60000E94DE10892BC1F4239645E050E06BEB14
:101F700070E0CE010E94DE10892B09F42596011530
:101F8000110519F0D801CD93DC93D11006C160E0A2
:101F900070E080E89FE70AC143E050E068EB70E042
:101FA000CE010E94DE10892B59F40115110509F4A8
:101FB000F9C0B2E0EB0EF11CF801F182E082F2C050
:101FC000F70160E070E0CB01C0E0D0E07F01A0ED60
:101FD000AA2EAC0C29E02A1530F14D2D4260B42E0A
:101FE0002D2D2870D2FE04C0211125C0219623C0BA
:101FF00021112197A5E0B0E09B01AC010E940F0DDB
:10200000660F771F881F991F6A0D711D811D911D15
:102010006839A9E97A078A07A9E19A0760F0BD2D16
:10202000B660BB2E08C02EEFA2120AC0D3FC50C06F
:102030004D2D4860B42E3196D701CC90DB2CC6CF05
:102040002C2D2F7D253409F043C0A081AD3241F401
:10205000BD2DB061DB2E7F0122E0E20EF11C0CC031
:102060007F01AB3231F04FEFE41AF40A21E030E0A7
:1020700006C0A2E0EA0EF11CA18122E030E0A053EC
:10208000AA3018F0E21AF30A23C0F70120E030E08A
:102090002038BCE03B075CF4A901440F551F440FF6
:1020A000551F240F351F220F331F2A0F311DAF017B
:1020B0004F5F5F4F7A01A081A053AA3010F4FA015C
:1020C000E7CFD4FE03C0319521953109C20FD31F4C
:1020D000D1FE09C00115110531F0E1E0EE1AF10859
:1020E000D801ED92FC920E94A10B2D2D237023307C
:1020F00019F04B015C0106C04B015C01B7FAB094CA
:10210000B7F8B09420E030E0A901C501B4010E9405
:10211000040B882309F43EC0D7FF06C0D195C195B2
:10212000D10907ED10E002C00FEE10E06801B8E140
:10213000CB1AD10890E2E92EF12CCE15DF0574F010
:10214000F8012591359145915491C501B4010E9442
:10215000570C4B015C01CE19DF09EFCF0450110978
:10216000F594E7940C151D0541F78A2D880F8B2DEA
:10217000881F8F3F49F020E030E0A901C501B4017C
:102180000E94040B811106C082E290E09093E80364
:102190008093E703C501B40109C060E070E080E806
:1021A0009FEF04C060E070E080EC9FE7CDB7DEB742
:1021B000ECE00C941811992788270895FB01DC01A5
:1021C0004150504088F08D9181341CF08B350CF4D7
:1021D000805E659161341CF06B350CF4605E861B8B
:1021E000611171F3990B0895881BFCCF2F923F92D8
:1021F0004F925F926F927F928F929F92AF92BF9217
:10220000CF92DF92EF92FF920F931F93CF93DF93C2
:10221000CDB7DEB7CA1BDB0B0FB6F894DEBF0FBE1F
:10222000CDBF09942A88398848885F846E847D846C
:102230008C849B84AA84B984C884DF80EE80FD806E
:102240000C811B81AA81B981CE0FD11D0FB6F894E4
:0E225000DEBF0FBECDBFED010895F894FFCFA5
:10225E000000E903800001000000014D6F746F72F1
:10226E00206472697665722074657374696E670096
:10227E004D6F746F7220270027206973206E6F7464
:10228E0020612076616C6964206F7074696F6E2EA8
:10229E000073746D743A20002C2061637475616C48
:1022AE00506F73436F6D6D616E643A20002C205237
:1022BE006177204D6F746F7220506F736974696F00
:1022CE006E3A2000506F736974696F6E206F75746B
:1022DE00206F662072616E67652E2020506C6561DE
:1022EE0073652073656C65637420626574776565CC
:1022FE006E203020616E64203130302E00526563C6
:10230E00656976656420706F7320636F6D6D616EA5
:10231E00643A20002C20706F7420706F733A200086
:10232E005370656564206F7574206F662072616EE0
:10233E0067652E202043686F6F7365206265747722
:10234E0065656E203020616E64203130302E005273
:10235E0061772073706565643A20002C2053706598
:10236E006564206D617070656420746F3A2000742E
:10237E006F6C6572616E6365206F7574206F662079
:10238E0072616E67652E202043686F6F73652062E1
:10239E0065747765656E203020616E642031302E55
:1023AE0000546F6C6572616E636520736574207482
:1023BE006F3A2000706F736974696F6E20636F6D72
:1023CE006D616E643A20002C2063757272656E74B6
:1023DE0020706F736974696F6E3A20002C205370F1
:1023EE006565643A20002C20546F6C6572616E63D3
:1023FE00653A2000636F6D6D616E643A2027002789
:10240E00206E6F7420737570706F727465642E0019
:10241E0000000000FF057B0781059A058C05DD0590
:10242E000D0A006E616E00696E66006F76660000C2
:00000001FF
