:100000000C947B000C94A3000C94A3000C94A3000C
:100010000C94A3000C94A3000C94A3000C94A300D4
:100020000C94A3000C94A3000C94A3000C94A300C4
:100030000C94A3000C94A3000C94A3000C94A300B4
:100040000C94FF020C94A3000C9446060C947806C2
:100050000C94A3000C94A3000C94A3000C94A30094
:100060000C94A3000C94A3000000000800020100FF
:100070000003040700000000000000000102040863
:100080001020408001020408102001020408102002
:10009000040404040404040402020202020203032E
:1000A0000303030300000000250028002B000000CC
:1000B0000000240027002A004E414E494E49545961
:1000C000494E46CDCCCC3D0AD7233C17B7D1387723
:1000D000CC2B329595E6241FB14F0A000020410039
:1000E00000C84200401C4620BCBE4CCA1B0E5AAE83
:1000F000C59D7400A80611241FBECFEFD8E0DEBF57
:10010000CDBF12E0A0E0B1E0EEE5F1E202C0059063
:100110000D92A43BB107D9F723E0A4EBB2E001C0F4
:100120001D92A037B207E1F710E0C6EFD0E004C09F
:100130002297FE010E949C0CC43FD107C9F70E9480
:10014000EC060C94AD100C94000026E040E052EC5C
:1001500061E070E08DEC92E00E94E40561E084E0F3
:100160000E94920461E085E00E94920461E082E0D6
:100170000E94920461E084E00E94CB0460E085E08C
:100180000E94CB04609110017091110182E00E94E5
:100190000A0468EE73E080E090E00C947803CF925C
:1001A000DF92EF92FF920F931F930E944903609397
:1001B000B8027093B9028093BA029093BB02009187
:1001C000B4021091B5022091B6023091B7026B01D2
:1001D0007C01C01AD10AE20AF30A00910A011091C7
:1001E0000B0120910C0130910D010C151D052E0500
:1001F0003F05C0F56093B4027093B5028093B602D8
:100200009093B70265E171E08DEC92E00E943907AE
:1002100060910E0170910F014AE050E08DEC92E088
:100220000E94F1076CE171E08DEC92E00E943907C9
:100230006091C2027091C3024AE050E08DEC92E0FE
:100240000E94F10761E371E08DEC92E00E943907B2
:100250008FE00E94ED034AE050E0BC018DEC92E09B
:100260000E94F9078FE00E94ED034091C202509175
:10027000C3022091120130911301BA01621B730B6A
:1002800086179707A4F461E084E00E94CB0460E045
:1002900085E00E94CB04609110017091110182E011
:1002A0000E940A0410920F0110920E0129C0240F1F
:1002B000351F60E0281739078CF484E00E94CB04D6
:1002C00061E085E00E94CB04609110017091110102
:1002D00082E00E940A0481E090E00EC084E00E9467
:1002E000CB0460E085E00E94CB0460E070E082E037
:1002F0000E940A0482E090E090930F0180930E0127
:100300001F910F91FF90EF90DF90CF900895AF92E3
:10031000BF92CF92DF92EF92FF920F931F93CF93F2
:10032000DF9300D000D000D0CDB7DEB78DEC92E0E7
:100330000E941A05182F66EA72E0CE0101960E940B
:10034000B30965E070E080E090E00E9478038DECF6
:1003500092E00E940105892B51F08DEC92E00E9401
:100360001A05682FCE0101960E94F509EACF1037D1
:1003700009F4DEC01CF4143641F01BC1133709F434
:1003800071C0143709F4C3C014C1CE0101960E9494
:10039000130A6B017C016093BE027093BF028093CD
:1003A000C0029093C10220E030E0A9010E94840ABB
:1003B00087FD0AC020E030E048EC52E4C701B601F6
:1003C0000E94D30B18161CF468E471E0FFC0C7014B
:1003D000B6010E94F00A1F921F921F922AEE2F93DD
:1003E000A12CB12C650114E6E12EF12C00E010E007
:1003F00020E030E0A9010E94FE087093C3026093E0
:10040000C20261E871E08DEC92E00E9439074091F0
:10041000BE025091BF026091C0027091C10222E001
:1004200030E08DEC92E00E94FC086CE171E08DEC14
:1004300092E00E9439076091C2027091C3024AE0C3
:1004400050E08DEC92E00E94F10768E971E08DECDC
:1004500092E00E9439078FE00E94ED034AE050E0ED
:10046000BC014CC0CE0101960E94080A7093BD02E7
:100470006093BC026536710558F064EA71E08DEC5A
:1004800092E00E9446071092110110921001A2C042
:10049000882777FD8095982F1F921F921F922FEF2C
:1004A0002F93A12CB12C650114E6E12EF12C00E074
:1004B00010E020E030E0A9010E94FE0870931101D5
:1004C0006093100163ED71E08DEC92E00E943907BA
:1004D0006091BC027091BD024AE050E08DEC92E068
:1004E0000E94F1076FED71E08DEC92E00E943907F8
:1004F00060911001709111014AE050E08DEC92E0A2
:100500000E94F9070F900F900F900F9063C0CE01DB
:1005100001960E94080A70931301609312016B30D8
:10052000710518F063EF71E051C065E272E032C00E
:1005300068E372E08DEC92E00E9439076091C2029C
:100540007091C3024AE050E08DEC92E00E94F10706
:100550006BE472E08DEC92E00E9439078FE00E941C
:10056000ED034AE050E0BC018DEC92E00E94F107FF
:1005700060E672E08DEC92E00E9439076091100114
:10058000709111014AE050E08DEC92E00E94F10779
:100590006AE672E08DEC92E00E94390760911201E8
:1005A000709113014AE050E08DEC92E00E94F9074F
:1005B00011C068E772E08DEC92E00E943907612F6C
:1005C0008DEC92E00E943B0763E872E08DEC92E0D4
:1005D0000E944607CE0101960E94450926960FB655
:1005E000F894DEBF0FBECDBFDF91CF911F910F9169
:1005F000FF90EF90DF90CF90BF90AF9008951F9243
:100600000F920FB60F9211242F933F938F939F93C6
:10061000AF93BF938091C5029091C602A091C7028B
:10062000B091C8023091C40223E0230F2D3720F48B
:100630000196A11DB11D05C026E8230F0296A11D3C
:10064000B11D2093C4028093C5029093C602A0936B
:10065000C702B093C8028091C9029091CA02A091CA
:10066000CB02B091CC020196A11DB11D8093C902AD
:100670009093CA02A093CB02B093CC02BF91AF91EA
:100680009F918F913F912F910F900FBE0F901F90D0
:1006900018952FB7F8946091C5027091C6028091A9
:1006A000C7029091C8022FBF08953FB7F894809178
:1006B000C9029091CA02A091CB02B091CC0226B59A
:1006C000A89B05C02F3F19F00196A11DB11D3FBF8A
:1006D0006627782F892F9A2F620F711D811D911D1A
:1006E00042E0660F771F881F991F4A95D1F708953A
:1006F0008F929F92AF92BF92CF92DF92EF92FF9232
:100700006B017C010E9455034B015C01C114D104B3
:10071000E104F104F1F00E941E0A0E9455036819D9
:1007200079098A099B09683E73408105910570F338
:1007300021E0C21AD108E108F10888EE880E83E0B2
:10074000981EA11CB11CC114D104E104F10429F7C5
:10075000DDCFFF90EF90DF90CF90BF90AF909F9054
:100760008F900895789484B5826084BD84B581604B
:1007700084BD85B5826085BD85B5816085BDEEE6A9
:10078000F0E0808181608083E1E8F0E01082808188
:1007900082608083808181608083E0E8F0E08081F6
:1007A00081608083E1EBF0E0808184608083E0EB16
:1007B000F0E0808181608083EAE7F0E080818460FE
:1007C000808380818260808380818160808380815A
:1007D000806880831092C10008958E3008F08E509A
:1007E00087702091140190E4299F90011124822B9D
:1007F00080937C0080917A00806480937A0080915D
:100800007A0086FDFCCF809178002091790090E0FD
:10081000922B08951F93CF93DF93182FEB0161E084
:100820000E949204209711F460E004C0CF3FD105EC
:1008300039F461E0812FDF91CF911F910C94CB04AB
:10084000E12FF0E0E859FF4FE491E330F9F048F48C
:10085000E130B9F0E230A1F584B5806284BDC8BD55
:1008600034C0E730E9F0E83019F1E43049F580911F
:100870008000806280938000D0938B00C0938A00B8
:1008800024C084B5806884BDC7BD1FC0809180002E
:10089000806880938000D0938900C093880015C041
:1008A0008091B00080688093B000C093B3000DC009
:1008B0008091B00080628093B000C093B40005C006
:1008C000C038D1050CF0B5CFAFCFDF91CF911F91DC
:1008D0000895833081F028F4813099F08230A1F0BE
:1008E00008958730A9F08830B9F08430D1F4809130
:1008F00080008F7D03C0809180008F77809380007F
:10090000089584B58F7702C084B58F7D84BD089526
:100910008091B0008F7703C08091B0008F7D80936D
:10092000B0000895CF93DF9390E0FC01E458FF4FAF
:100930002491FC01E057FF4F8491882349F190E016
:10094000880F991FFC01E255FF4FA591B4918C557A
:100950009F4FFC01C591D4919FB7611108C0F894D5
:100960008C91209582238C93888182230AC06230E7
:1009700051F4F8948C91322F309583238C93888195
:10098000822B888304C0F8948C91822B8C939FBF18
:10099000DF91CF9108950F931F93CF93DF931F9211
:1009A000CDB7DEB7282F30E0F901E859FF4F849129
:1009B000F901E458FF4F1491F901E057FF4F0491FA
:1009C0000023C9F0882321F069830E9469046981AA
:1009D000E02FF0E0EE0FFF1FEC55FF4FA591B49113
:1009E0009FB7F8948C91611103C01095812301C0C9
:1009F000812B8C939FBF0F90DF91CF911F910F910F
:100A00000895FC01818D228D90E0805C9F4F821BB8
:100A100091098F7399270895FC01918D828D981704
:100A200031F0828DE80FF11D858D90E008958FEFF4
:100A30009FEF0895FC01918D828D981761F0828D52
:100A4000DF01A80FB11D5D968C91928D9F5F9F7302
:100A5000928F90E008958FEF9FEF08958EE996E0D2
:100A6000892B49F087E891E0892B29F00E949E06A6
:100A700081110C9487010895FC01848DDF01A80F7A
:100A8000B11DA35ABF4F2C91848D90E001968F73B6
:100A90009927848FA689B7892C93A089B1898C91D5
:100AA00080648C93938D848D981306C00288F3899B
:100AB000E02D80818F7D80830895CF93DF93EC01BB
:100AC000888D8823C9F0EA89FB89808185FD05C06E
:100AD000A889B9898C9186FD0FC00FB607FCF5CFA8
:100AE000808185FFF2CFA889B9898C9185FFEDCFF0
:100AF000CE010E943C05E7CFDF91CF910895CF92C0
:100B0000DF92FF920F931F93CF93DF931F92CDB786
:100B1000DEB76C0181E0D60158968C9358975B96AE
:100B20009C915B975C968C915C97981307C050964C
:100B3000ED91FC915197808185FD2EC0F601038DCA
:100B400010E00F5F1F4F0F731127F02EF601848DF9
:100B5000F81211C00FB607FCF9CFD6015096ED91EF
:100B6000FC915197808185FFF1CFC60169830E9476
:100B70003C056981EBCF838DE80FF11DE35AFF4FF0
:100B80006083D6015B960C935B975296ED91FC9136
:100B90005397808180620CC0D6015696ED91FC91EE
:100BA000579760835096ED91FC91519780818064B6
:100BB000808381E090E00F90DF91CF911F910F91A2
:100BC000FF90DF90CF900895BF92CF92DF92EF9287
:100BD000FF92CF93DF93EC016A017B01B22EE8898B
:100BE000F98982E08083411581EE5807610571051E
:100BF000A1F060E079E08DE390E0A70196010E940A
:100C00004E0C2150310941095109569547953795A8
:100C10002795211580E1380798F0E889F989108235
:100C200060E874E88EE190E0A70196010E944E0C06
:100C30002150310941095109569547953795279516
:100C4000EC85FD853083EE85FF852083188EEC8949
:100C5000FD89B082EA89FB89808180618083EA898D
:100C6000FB89808188608083EA89FB898081806834
:100C70008083EA89FB8980818F7D8083DF91CF919A
:100C8000FF90EF90DF90CF90BF9008951F920F924A
:100C90000FB60F9211242F938F939F93EF93FF938F
:100CA000E091DD02F091DE028081E091E302F091BB
:100CB000E40282FD12C090818091E6028F5F8F7303
:100CC0002091E702821751F0E091E602F0E0E35351
:100CD000FD4F958F8093E60201C08081FF91EF91D7
:100CE0009F918F912F910F900FBE0F901F9018958D
:100CF0001F920F920FB60F9211242F933F934F9391
:100D00005F936F937F938F939F93AF93BF93EF9373
:100D1000FF938DEC92E00E943C05FF91EF91BF9113
:100D2000AF919F918F917F916F915F914F913F9183
:100D30002F910F900FBE0F901F9018958DEC92E0A1
:100D40000E94010521E0892B09F420E0822F0895FB
:100D50001092D0021092CF0288EE93E0A0E0B0E0B3
:100D60008093D1029093D202A093D302B093D40285
:100D700088E992E09093CE028093CD0285EC90E0DA
:100D80009093DA028093D90284EC90E09093DC0295
:100D90008093DB0280EC90E09093DE028093DD0292
:100DA00081EC90E09093E0028093DF0282EC90E08F
:100DB0009093E2028093E10286EC90E09093E4024B
:100DC0008093E3021092E6021092E7021092E8028A
:100DD0001092E902089508950E94B2030E94EB0662
:100DE0000E94A500CEE2D5E00E94CF002097E1F35B
:100DF0000E942E05F9CFCF92DF92EF92FF920F93D0
:100E00001F93CF93DF937C016A01EB0100E010E0B8
:100E10000C151D0571F06991D701ED91FC910190C0
:100E2000F081E02DC7010995892B19F00F5F1F4F45
:100E3000EFCFC801DF91CF911F910F91FF90EF90FD
:100E4000DF90CF9008956115710581F0DB010D9061
:100E50000020E9F7AD0141505109461B570BDC0159
:100E6000ED91FC910280F381E02D099480E090E007
:100E700008950C942307DC01ED91FC910190F08121
:100E8000E02D099464EA72E00C9423070F931F93FA
:100E9000CF93DF93EC010E9423078C01CE010E94C7
:100EA0004207800F911FDF91CF911F910F910895FD
:100EB0008F929F92AF92BF92DF92EF92FF920F9329
:100EC0001F93CF93DF93CDB7DEB7A1970FB6F894FA
:100ED000DEBF0FBECDBF7C01F42FD52ECB0119A2F2
:100EE000223008F42AE08E010F5D1F4F822E912CD4
:100EF000A12CB12C6F2F7D2DA50194010E944E0CC9
:100F0000F22FD32ECA01015011096A3014F4E0E324
:100F100001C0E7E3E60FD801EC93232B242B252B0C
:100F200049F7B801C7010E942307A1960FB6F894AC
:100F3000DEBF0FBECDBFDF91CF911F910F91FF900C
:100F4000EF90DF90BF90AF909F908F900895CF92D9
:100F5000DF92EF92FF920F931F93CF93DF93EC01F9
:100F60006A017B012115310579F4E881F98101904D
:100F7000F081E02D642FDF91CF911F910F91FF90B1
:100F8000EF90DF90CF9009942A303105E9F477FF94
:100F90001AC06DE20E943B078C0144275527BA0115
:100FA0004C195D096E097F092AE0CE010E9458079D
:100FB000800F911FDF91CF911F910F91FF90EF90C4
:100FC000DF90CF9008952AE0B701A601CE01DF910E
:100FD000CF911F910F91FF90EF90DF90CF900C94E5
:100FE00058079A01AB01662757FD6095762F0C9440
:100FF000A7070F931F93CF93DF93EC019A01AB01E7
:10100000662757FD6095762F0E94A7078C01CE01B9
:101010000E944207800F911FDF91CF911F910F9186
:1010200008954F925F926F927F928F929F92AF92AC
:10103000BF92CF92DF92EF92FF920F931F93CF93C5
:10104000DF93EC016A017B01B22E9A01AB01C7016B
:10105000B6010E943A0C882319F067EA72E027C0B3
:1010600026013701E89477F82FEF3FEF4FE75FE76E
:10107000C301B2010E943A0C81110DC02FEF3FEF66
:101080004FE75FE7C301B2010E94840A18161CF4FF
:101090006BEA72E00CC02FEF3FEF4FE75FE4C70150
:1010A000B6010E94D30B1816ACF46FEA72E0CE01C1
:1010B000DF91CF911F910F91FF90EF90DF90CF9034
:1010C000BF90AF909F908F907F906F905F904F9068
:1010D0000C9423072FEF3FEF4FE75FECC701B601FA
:1010E0000E94840A87FDE1CF20E030E0A901C7011A
:1010F000B6010E94840A87FF0AC06DE2CE010E94F9
:101100003B078C01F7FAF094F7F8F09402C000E086
:1011100010E0A12C60E070E080E09FE3AB1441F0B0
:1011200020E030E040E251E40E94880AA394F6CF28
:101130009B01AC01C701B6010E94200A6B017C0132
:101140000E94F50A2B013C010E94210B9B01AC017E
:10115000C701B6010E941F0A6B017C012AE0B3019E
:10116000A201CE010E945807080F191FBB2039F0B9
:1011700061ED71E0CE010E942307080F191F7B2C3F
:10118000772041F120E030E040E251E4C701B601B0
:101190000E94D70B6B017C010E94F00A4B01AA242C
:1011A00097FCA094BA2C2AE030E0B501A401CE014E
:1011B0000E94A707080F191FC501B4010E94230B45
:1011C0009B01AC01C701B6010E941F0A6B017C01A3
:1011D0007A94D6CFC801DF91CF911F910F91FF90E4
:1011E000EF90DF90CF90BF90AF909F908F907F90C7
:1011F0006F905F904F9008950C9411084F925F92FA
:101200006F927F92AF92BF92CF92DF92EF92FF9256
:101210000F931F93CF93DF93CDB7DEB729013A0128
:10122000621B730B840B950B29893A894B895C8966
:101230002A193B094C095D09298B3A8B4B8B5C8B36
:101240009B01AC0169897A898B899C890E943E0C3B
:10125000E418F50806091709A80197010E94700C07
:101260002A0D3B1D4C1D5D1DCA01B901DF91CF91B7
:101270001F910F91FF90EF90DF90CF90BF90AF90B4
:101280007F906F905F904F900895FC0180819181D5
:101290000C94470DCF93DF93EC01888199810097DF
:1012A00011F00E94470D198218821D821C821B8238
:1012B0001A82DF91CF9108950F931F93CF93DF93FD
:1012C000EC018B016F5F7F4F888199810E94D60D61
:1012D000009731F0998388831B830A8381E001C0E2
:1012E00080E0DF91CF911F910F910895CF93DF930D
:1012F000EC0188819981892B29F08A819B8186174D
:10130000970760F4CE010E945C09882341F08C812C
:101310009D81892B19F4E881F981108281E0DF91A8
:10132000CF910895EF92FF920F931F93CF93DF9386
:10133000EC017B018A01BA010E947609811104C087
:10134000CE010E944A0907C01D830C83B701888122
:1013500099810E94DC0ECE01DF91CF911F910F91F8
:10136000FF90EF900895FC01118210821382128287
:10137000158214826115710559F0FB01019000205E
:10138000E9F7AF0141505109461B570B0C949209E4
:101390000895EF92FF920F931F93CF93DF93EC0189
:1013A0007B010C811D816115710511F480E016C06F
:1013B0004115510591F0040F151FB8010E947609DF
:1013C0008823A1F3288139818C819D81B701820F07
:1013D000931F0E94DC0E1D830C8381E0DF91CF916F
:1013E0001F910F91FF90EF900895CF93DF9300D05E
:1013F000CDB7DEB769831A8241E050E0BE016F5F6E
:101400007F4F0E94C9090F900F90DF91CF910895EF
:10141000FC0180819181009711F00C94A40E60E092
:1014200070E0CB010895FC0180819181009711F05B
:101430000C94A00E60E070E0CB0108950895505820
:10144000BB27AA270ED075C166D130F06BD120F032
:1014500031F49F3F11F41EF45BC10EF4E095E7FBFD
:1014600051C1E92F77D180F3BA1762077307840758
:10147000950718F071F49EF58FC10EF4E0950B2ED0
:10148000BA2FA02D0B01B90190010C01CA01A001D6
:101490001124FF27591B99F0593F50F4503E68F131
:1014A0001A16F040A22F232F342F4427585FF3CF72
:1014B000469537952795A795F0405395C9F77EF443
:1014C0001F16BA0B620B730B840BBAF09150A1F08C
:1014D000FF0FBB1F661F771F881FC2F70EC0BA0F12
:1014E000621F731F841F48F4879577956795B7959A
:1014F000F7959E3F08F0B3CF9395880F08F0992792
:10150000EE0F979587950895D9D008F481E0089556
:101510000CD00FC107D140F0FED030F021F45F3F76
:1015200019F0F0C0511139C1F3C014D198F39923C7
:10153000C9F35523B1F3951B550BBB27AA27621797
:101540007307840738F09F5F5F4F220F331F441FDC
:10155000AA1FA9F333D00E2E3AF0E0E830D0915014
:101560005040E695001CCAF729D0FE2F27D0660F01
:10157000771F881FBB1F261737074807AB07B0E840
:1015800009F0BB0B802DBF01FF2793585F4F2AF056
:101590009E3F510568F0B6C000C15F3FECF3983E36
:1015A000DCF3869577956795B795F7959F5FC9F7B3
:1015B000880F911D9695879597F90895E1E0660F3C
:1015C000771F881FBB1F621773078407BA0720F0B5
:1015D000621B730B840BBA0BEE1F88F7E09508951E
:1015E00004D06894B111D9C00895BCD088F09F5739
:1015F00090F0B92F9927B751A0F0D1F0660F771F5F
:10160000881F991F1AF0BA95C9F712C0B13081F03E
:10161000C3D0B1E00895C0C0672F782F8827B85F86
:1016200039F0B93FCCF3869577956795B395D9F79F
:101630003EF490958095709561957F4F8F4F9F4FA9
:101640000895E89409C097FB3EF4909580957095B5
:1016500061957F4F8F4F9F4F9923A9F0F92F96E9FE
:10166000BB279395F695879577956795B795F11173
:10167000F8CFFAF4BB0F11F460FF1BC06F5F7F4F10
:101680008F4F9F4F16C0882311F096E911C0772322
:1016900021F09EE8872F762F05C0662371F096E82B
:1016A000862F70E060E02AF09A95660F771F881FFA
:1016B000DAF7880F9695879597F90895990F00089E
:1016C000550FAA0BE0E8FEEF16161706E807F90714
:1016D000C0F012161306E407F50798F0621B730BAF
:1016E000840B950B39F40A2661F0232B242B252B30
:1016F00021F408950A2609F4A140A6958FEF811DD3
:10170000811D089597F99F6780E870E060E0089573
:101710009FEF80EC089500240A9416161706180609
:101720000906089500240A941216130614060506E5
:101730000895092E0394000C11F4882352F0BB0F76
:1017400040F4BF2B11F460FF04C06F5F7F4F8F4FD9
:101750009F4F089557FD9058440F551F59F05F3F14
:1017600071F04795880F97FB991F61F09F3F79F0C3
:1017700087950895121613061406551FF2CF469545
:10178000F1DF08C0161617061806991FF1CF8695C7
:101790007105610508940895E894BB2766277727AB
:1017A000CB0197F908958ADF08F48FEF08950BD0E5
:1017B000C0CFB1DF28F0B6DF18F0952309F0A2CF33
:1017C000A7CF1124EACFC6DFA0F3959FD1F3950FE1
:1017D00050E0551F629FF001729FBB27F00DB11DB5
:1017E000639FAA27F00DB11DAA1F649F6627B00D45
:1017F000A11D661F829F2227B00DA11D621F739F2E
:10180000B00DA11D621F839FA00D611D221F749F3B
:101810003327A00D611D231F849F600D211D822F82
:10182000762F6A2F11249F5750408AF0E1F08823C9
:101830004AF0EE0FFF1FBB1F661F771F881F9150D6
:101840005040A9F79E3F510570F05CCFA6CF5F3F97
:10185000ECF3983EDCF3869577956795B795F79509
:10186000E7959F5FC1F7FE2B880F911D9695879591
:1018700097F9089523DF880B990B0895DB018F9367
:101880009F930E948F0CBF91AF91A29F800D911DDD
:10189000A39F900DB29F900D11240895A1E21A2EDE
:1018A000AA1BBB1BFD010DC0AA1FBB1FEE1FFF1F04
:1018B000A217B307E407F50720F0A21BB30BE40B54
:1018C000F50B661F771F881F991F1A9469F760959B
:1018D0007095809590959B01AC01BD01CF01089555
:1018E000052E97FB1EF400940E94870C57FD07D02D
:1018F0000E944E0C07FC03D04EF40C94870C5095BC
:101900004095309521953F4F4F4F5F4F08959095EB
:101910008095709561957F4F8F4F9F4F08950E94DE
:10192000A00CA59F900DB49F900DA49F800D911DBC
:1019300011240895EE0FFF1F0590F491E02D0994F6
:10194000A29FB001B39FC001A39F700D811D112400
:10195000911DB29F700D811D1124911D0895CF938B
:10196000DF938230910510F482E090E0E0916C0307
:10197000F0916D0320E030E0A0E0B0E0309739F165
:101980004081518148175907B8F04817590771F439
:1019900082819381109729F013969C938E931297CE
:1019A0002CC090936D0380936C0327C021153105E3
:1019B00031F04217530718F0A901DB0101C0EF0114
:1019C0009A01BD01DF010280F381E02DD7CF2115FF
:1019D0003105F9F0281B390B2430310580F48A8158
:1019E0009B816115710521F0FB019383828304C003
:1019F00090936D0380936C03FE01329644C0FE0108
:101A0000E20FF31F81939193225031093983288388
:101A10003AC020916A0330916B03232B41F420914B
:101A200002013091030130936B0320936A032091EC
:101A30000001309101012115310541F42DB73EB768
:101A40004091040150910501241B350BE0916A037C
:101A5000F0916B03E217F307A0F42E1B3F0B28173E
:101A6000390778F0AC014E5F5F4F2417350748F017
:101A70004E0F5F1F50936B0340936A0381939193C2
:101A800002C0E0E0F0E0CF01DF91CF910895CF9365
:101A9000DF93009709F487C0FC013297138212820A
:101AA000C0916C03D0916D03209781F42081318126
:101AB000280F391F80916A0390916B038217930757
:101AC00079F5F0936B03E0936A036DC0DE0120E0CB
:101AD00030E0AE17BF0750F412964D915C9113970A
:101AE0009D014115510509F1DA01F3CFB383A283BA
:101AF00040815181840F951F8A179B0771F48D9146
:101B00009C911197840F951F029691838083129662
:101B10008D919C911397938382832115310529F42C
:101B2000F0936D03E0936C033EC0D9011396FC93D0
:101B3000EE9312974D915D91A40FB51FEA17FB0725
:101B400079F480819181840F951F0296D9011196B5
:101B50009C938E938281938113969C938E9312977C
:101B6000E0E0F0E08A819B81009719F0FE01EC0132
:101B7000F9CFCE01029628813981820F931F2091DF
:101B80006A0330916B032817390769F4309729F4F9
:101B900010926D0310926C0302C013821282D093D4
:101BA0006B03C0936A03DF91CF910895A0E0B0E08A
:101BB000ECEDFDE00C947A10EC01CB01209719F4C8
:101BC0000E94AF0CB8C0FE01E60FF71F9E01225025
:101BD0003109E217F30708F4ACC0D9010D911C914B
:101BE000119706171707B8F00530110508F49FC0C4
:101BF000A801445051094617570708F498C00250ED
:101C00001109061B170B019311936D937C93CF0160
:101C10000E94470D8CC05B01A01AB10A4E01800ED4
:101C2000911EA0916C03B0916D03612C712C60E04A
:101C300070E0109709F449C0A815B905C9F5ED90F1
:101C4000FC901197670142E0C40ED11CCA14DB045A
:101C500078F147018A189B08640142E0C40ED11C48
:101C60001296BC9012971396AC91B5E0CB16D104A6
:101C700040F0B282A38391828082D9018D939C939C
:101C800009C00E5F1F4F0E0D1F1DF9011183008348
:101C9000EB2DFA2F6115710531F0DB011396FC93E2
:101CA000EE93129744C0F0936D03E0936C033FC032
:101CB0006D917C9111976616770608F43B01BD0182
:101CC00012960D90BC91A02DB4CF60916A037091D3
:101CD0006B0368157905E9F468167906D0F440912C
:101CE0000001509101014115510541F44DB75EB716
:101CF0006091040170910501461B570BE417F5072D
:101D0000C0F4F0936B03E0936A03F901918380833D
:101D10000EC00E94AF0C7C01009759F0A801BE01D3
:101D20000E94D30ECE010E94470DC70104C0CE0110
:101D300002C080E090E0CDB7DEB7EEE00C949610E4
:101D4000662777270C94F80E1F93FC0199278827A4
:101D5000BC01E89411911032E9F3193010F01E30F3
:101D6000C8F31B3251F01D3249F4689406C00E943A
:101D7000E30E610F711D811D911D119110531A30D9
:101D8000B0F33EF490958095709561957F4F8F4F9D
:101D90009F4F1F91089591118EC1803219F0895083
:101DA0008550D0F70895FB01DC0102C001900D922F
:101DB00041505040D8F70895FB01DC0101900D928D
:101DC0000020E1F70895592F482F372F262F660F4F
:101DD000771F881F991F660F771F881F991F620F33
:101DE000731F841F951F660F771F881F991F089503
:101DF000A0E0B0E0EEEFFEE00C947C108B016115EA
:101E0000710521F0DB018C9311969C93EC015E012E
:101E1000BFEFAB1ABB0A7501C8808C2D90E00E9401
:101E2000CB0E892B11F0E501F2CFEDE2CE1208C006
:101E30007E01F2E0EF0EF11CC980DD24D39409C0CD
:101E40002BE2C21205C07E0142E0E40EF11CC98003
:101E5000D12CE701219743E050E060EC70E0CE0127
:101E60000E945E10892BC1F4239645E050E06BEB95
:101E700070E0CE010E945E10892B09F425960115B1
:101E8000110519F0D801CD93DC93D11006C160E0A3
:101E900070E080E89FE70AC143E050E068EB70E043
:101EA000CE010E945E10892B59F40115110509F429
:101EB000F9C0B2E0EB0EF11CF801F182E082F2C051
:101EC000F70160E070E0CB01C0E0D0E07F01A0ED61
:101ED000AA2EAC0C29E02A1530F14D2D4260B42E0B
:101EE0002D2D2870D2FE04C0211125C0219623C0BB
:101EF00021112197A5E0B0E09B01AC010E948F0C5D
:101F0000660F771F881F991F6A0D711D811D911D16
:101F10006839A9E97A078A07A9E19A0760F0BD2D17
:101F2000B660BB2E08C02EEFA2120AC0D3FC50C070
:101F30004D2D4860B42E3196D701CC90DB2CC6CF06
:101F40002C2D2F7D253409F043C0A081AD3241F402
:101F5000BD2DB061DB2E7F0122E0E20EF11C0CC032
:101F60007F01AB3231F04FEFE41AF40A21E030E0A8
:101F700006C0A2E0EA0EF11CA18122E030E0A053ED
:101F8000AA3018F0E21AF30A23C0F70120E030E08B
:101F90002038BCE03B075CF4A901440F551F440FF7
:101FA000551F240F351F220F331F2A0F311DAF017C
:101FB0004F5F5F4F7A01A081A053AA3010F4FA015D
:101FC000E7CFD4FE03C0319521953109C20FD31F4D
:101FD000D1FE09C00115110531F0E1E0EE1AF1085A
:101FE000D801ED92FC920E94210B2D2D23702330FD
:101FF00019F04B015C0106C04B015C01B7FAB094CB
:10200000B7F8B09420E030E0A901C501B4010E9406
:10201000840A882309F43EC0D7FF06C0D195C19534
:10202000D10907ED10E002C00FEE10E06801B8E141
:10203000CB1AD10890E2E92EF12CCE15DF0574F011
:10204000F8012591359145915491C501B4010E9443
:10205000D70B4B015C01CE19DF09EFCF04501109FA
:10206000F594E7940C151D0541F78A2D880F8B2DEB
:10207000881F8F3F49F020E030E0A901C501B4017D
:102080000E94840A811106C082E290E090936F035F
:1020900080936E03C501B40109C060E070E080E880
:1020A0009FEF04C060E070E080EC9FE7CDB7DEB743
:1020B000ECE00C949810992788270895FB01DC0127
:1020C0004150504088F08D9181341CF08B350CF4D8
:1020D000805E659161341CF06B350CF4605E861B8C
:1020E000611171F3990B0895881BFCCF2F923F92D9
:1020F0004F925F926F927F928F929F92AF92BF9218
:10210000CF92DF92EF92FF920F931F93CF93DF93C3
:10211000CDB7DEB7CA1BDB0B0FB6F894DEBF0FBE20
:10212000CDBF09942A88398848885F846E847D846D
:102130008C849B84AA84B984C884DF80EE80FD806F
:102140000C811B81AA81B981CE0FD11D0FB6F894E5
:0E215000DEBF0FBECDBFED010895F894FFCFA6
:10215E0000007003800001000000E8030000FFFF94
:10216E00320003000173746D743A20002C206163F9
:10217E007475616C506F73436F6D6D616E643A2050
:10218E00002C20526177204D6F746F7220506F7348
:10219E006974696F6E3A2000506F736974696F6E5F
:1021AE00206F7574206F662072616E67652E202019
:1021BE00506C656173652073656C65637420626530
:1021CE00747765656E203020616E64203130302E5C
:1021DE0000526563656976656420706F7320636F66
:1021EE006D6D616E643A20002C20706F7420706FDC
:1021FE00733A20005370656564206F7574206F66A6
:10220E002072616E67652E202043686F6F736520A4
:10221E006265747765656E203020616E64203130A2
:10222E00302E005261772073706565643A20002C61
:10223E00205370656564206D617070656420746FE5
:10224E003A2000746F6C6572616E6365206F7574F1
:10225E00206F662072616E67652E202043686F6F57
:10226E007365206265747765656E203020616E64DB
:10227E002031302E00546F6C6572616E6365207371
:10228E00657420746F3A2000706F736974696F6E95
:10229E0020636F6D6D616E643A20002C2063757241
:1022AE0072656E7420706F736974696F6E3A200078
:1022BE002C2053706565643A20002C20546F6C6599
:1022CE0072616E63653A2000636F6D6D616E643A84
:1022DE0020270027206E6F7420737570706F7274D4
:1022EE0065642E00000000007F05FB0601051A053F
:1022FE000C055D050D0A006E616E00696E66006F5D
:04230E0076660000EF
:00000001FF
