:100000000C947C000C94A4000C94A4000C94A40008
:100010000C94A4000C94A4000C94A4000C94A400D0
:100020000C94A4000C94A4000C94A4000C94A400C0
:100030000C94A4000C94A4000C94A4000C94A400B0
:100040000C9438040C94A4000C947F070C94B10712
:100050000C94A4000C94A4000C94A4000C94A40090
:100060000C94A4000C94A4000000000800020100FD
:100070000003040700000000000000000102040863
:100080001020408001020408102001020408102002
:10009000040404040404040402020202020203032E
:1000A0000303030300000000250028002B000000CC
:1000B0000000240027002A004E414E494E49545961
:1000C000494E46CDCCCC3D0AD7233C17B7D1387723
:1000D000CC2B329595E6241FB14F0A000020410039
:1000E00000C84200401C4620BCBE4CCA1B0E5AAE83
:1000F000C59D7400FF00E10711241FBECFEFD8E0BB
:10010000DEBFCDBF13E0A0E0B1E0E4EFF3E202C058
:1001100005900D92A030B107D9F724E0A0E0B3E03C
:1001200001C01D92A031B207E1F710E0C8EFD0E0A6
:1001300004C02297FE010E94E70DC43FD107C9F712
:100140000E9425080C94F8110C94000026E040E071
:1001500052EC61E070E08DE693E00E941D076BE0D9
:1001600071E08DE693E00E947F0868EE73E080E026
:1001700090E00C94B10480910203882329F083E479
:1001800093E00E94010206C083E493E00E94010212
:100190008093020380910103882329F083E293E096
:1001A0000E94010206C083E293E00E940102809354
:1001B000010380910003882329F083E093E00E94EB
:1001C000010206C083E093E00E94010280930003D5
:1001D00080910203882391F080910103882371F0BC
:1001E00080910003882351F08DE693E00E947B0804
:1001F0001092020310920103109200030895AF922F
:10020000CF92DF92EF92FF920F931F93AA24A394B1
:1002100083E0C82ED12CEE24E394F12C05E010E00D
:1002200024E030E042E050E061E383E493E00E94A8
:10023000BB0124E0E22EF12C07E010E028E030E0E2
:1002400046E050E062E383E293E00E94BB0133E0CA
:10025000E32EF12C0BE010E02AE030E049E050E022
:1002600063E383E093E00E94BB011F910F91FF9035
:10027000EF90DF90CF90AF9008950F931F93CF939F
:10028000DF9300D000D000D0CDB7DEB78DE693E08D
:100290000E945306182F6AE070E080E090E00E9410
:1002A000B1048DE693E00E945306082F612F8DE67E
:1002B00093E00E949108602F8DE693E00E949108E0
:1002C00063EF72E0CE0101960E94FE0A65E070E0E5
:1002D00080E090E00E94B1048DE693E00E943A062F
:1002E000892B31F08DE693E00E945306843269F445
:1002F000123389F01333C1F01133E9F4AE014F5FCB
:100300005F4F602F83E493E00CC0682FCE0101960D
:100310000E94400BDBCFAE014F5F5F4F602F83E247
:1003200093E00E94B40218C0AE014F5F5F4F602F90
:1003300083E093E0F6CF60E271E08DE693E00E9407
:100340007208612F8DE693E00E94740868E271E004
:100350008DE693E00E947208CE0101960E94900AF9
:1003600026960FB6F894DEBF0FBECDBFDF91CF91BA
:100370001F910F910895AF92CF92DF92EF92FF926B
:100380000F931F93CF93DF93EC01842F6F8F4883DC
:1003900059833B832A831D830C83FF82EE82DD8A8F
:1003A000CC8AAE8E1B8E1A8E1E8A1F8A188E198ECC
:1003B00022E330E03D8F2C8F2FEF3FEF398B288BDE
:1003C00061E00E94CB0561E08A810E94CB0561E07B
:1003D0008C810E94CB0560E070E088810E9443051B
:1003E00060E08A810E94040660E08C81DF91CF91F9
:1003F0001F910F91FF90EF90DF90CF90AF900C94F2
:100400000406CF92DF92EF92FF920F931F93CF9348
:10041000DF93EC010E948204688779878A879B8733
:100420002E8D222309F451C00C851D852E853F8514
:100430006B017C01C01AD10AE20AF30A49EEC41624
:1004400043E0D406E104F10408F43FC06C877D87E3
:100450008E879F8761E471E08DE693E00E947208C9
:100460006F8D8DE693E00E94740866E471E08DE67E
:1004700093E00E947208688979894AE050E08DE62D
:1004800093E00E943C096FE471E08DE693E00E94E6
:1004900072086A897B894AE050E08DE693E00E9409
:1004A0003C0960E671E08DE693E00E9472088E815F
:1004B0000E9426054AE050E0BC018DE693E00E94D0
:1004C000440981E08093630302C0109263038E812C
:1004D0000E9426054A895B892C893D89BA01621BE5
:1004E000730B8617970784F461E08A810E940406E3
:1004F00060E08C810E9404066C8D7D8D88810E9455
:100500004305198A188A25C0240F351F60E0281773
:1005100039077CF48A810E94040661E08C810E9484
:1005200004066C8D7D8D88810E94430581E090E0FA
:100530000EC08A810E94040660E08C810E9404063D
:1005400060E070E088810E94430582E090E0998B32
:10055000888B80916303DF91CF911F910F91FF9062
:10056000EF90DF90CF900895AF92BF92CF92DF923D
:10057000EF92FF920F931F93CF93DF93EC01162F0F
:10058000CA01603709F40EC11CF4643641F04AC157
:10059000633709F472C0643709F4E1C043C10E94B3
:1005A0005E0B6B017C016E8B7F8B888F998F20E0B7
:1005B00030E0A9010E94CF0B87FD0AC020E030E0A7
:1005C00048EC52E4C701B6010E941E0D18161CF437
:1005D00062E771E03FC1C701B6010E943B0C1F9268
:1005E0001F921F922EEF2F93A12CB12C650114E6C0
:1005F000E12EF12C00E010E020E030E0A9010E94A3
:10060000490A7B8B6A8B61E471E08DE693E00E947E
:1006100072086F8D8DE693E00E9474086BEA71E0BA
:100620008DE693E00E9472084E895F89688D798D0E
:1006300022E030E08DE693E00E94470A64EC71E02E
:100640008DE693E00E9472086A897B894AE050E057
:100650008DE693E00E943C0969ED71E08DE693E040
:100660000E9472088E810E9426050F900F900F90B5
:100670000F904AE050E0BC0164C00E94530B7B8F96
:100680006A8F65367105F0F061E471E08DE693E004
:100690000E9472086F8D8DE693E00E94740865EEEB
:1006A00071E08DE693E00E947F081D8E1C8EDF9125
:1006B000CF911F910F91FF90EF90DF90CF90BF905F
:1006C000AF900895882777FD8095982F1F921F92ED
:1006D0001F922FEF2F93A12CB12C650114E6E12E70
:1006E000F12C00E010E020E030E0A9010E94490A6E
:1006F0007D8F6C8F61E471E08DE693E00E9472085B
:100700006F8D8DE693E00E94740866E172E08DE6DD
:1007100093E00E9472086A8D7B8D4AE050E08DE67E
:1007200093E00E943C0964E272E08DE693E00E944F
:1007300072080F900F900F900F906C8D7D8D4AE096
:1007400050E08DE693E0DF91CF911F910F91FF90E4
:10075000EF90DF90CF90BF90AF900C9444090E942F
:10076000530B7D8B6C8B6B30710570F061E471E025
:100770008DE693E00E9472086F8D8DE693E00E94F3
:10078000740868E372E066C061E471E08DE693E0AE
:100790000E9472086F8D8DE693E00E9474086CE6EB
:1007A00072E039C061E471E08DE693E00E94720866
:1007B0006F8D8DE693E00E94740861E872E08DE62B
:1007C00093E00E9472086A897B894AE050E08DE6D6
:1007D00093E00E943C0966E972E08DE693E00E9496
:1007E00072088E810E9426054AE050E0BC018DE629
:1007F00093E00E943C096BEA72E08DE693E00E9470
:1008000072086C8D7D8D4AE050E08DE693E00E9489
:100810003C0965EB72E08DE693E00E9472086C89FA
:100820007D898DCF61E471E08DE693E00E947208CE
:100830006F8D8DE693E00E94740863EC72E08DE6A4
:1008400093E00E947208612F8DE693E00E94740885
:1008500060ED72E08DE693E0DF91CF911F910F91F3
:10086000FF90EF90DF90CF90BF90AF900C947F08F7
:100870001F920F920FB60F9211242F933F938F93D5
:100880009F93AF93BF938091650390916603A0916E
:100890006703B09168033091640323E0230F2D3781
:1008A00020F40196A11DB11D05C026E8230F029674
:1008B000A11DB11D2093640380936503909366038B
:1008C000A0936703B09368038091690390916A03D2
:1008D000A0916B03B0916C030196A11DB11D809393
:1008E000690390936A03A0936B03B0936C03BF9169
:1008F000AF919F918F913F912F910F900FBE0F90CD
:100900001F9018952FB7F894609165037091660356
:1009100080916703909168032FBF08953FB7F894C3
:100920008091690390916A03A0916B03B0916C036D
:1009300026B5A89B05C02F3F19F00196A11DB11D3A
:100940003FBF6627782F892F9A2F620F711D811D57
:10095000911D42E0660F771F881F991F4A95D1F7B6
:1009600008958F929F92AF92BF92CF92DF92EF92B3
:10097000FF926B017C010E948E044B015C01C1144B
:10098000D104E104F104F1F00E94690B0E948E048D
:10099000681979098A099B09683E734081059105A8
:1009A00070F321E0C21AD108E108F10888EE880E40
:1009B00083E0981EA11CB11CC114D104E104F10410
:1009C00029F7DDCFFF90EF90DF90CF90BF90AF90F1
:1009D0009F908F900895789484B5826084BD84B58B
:1009E000816084BD85B5826085BD85B5816085BD2A
:1009F000EEE6F0E0808181608083E1E8F0E0108243
:100A0000808182608083808181608083E0E8F0E083
:100A1000808181608083E1EBF0E08081846080836D
:100A2000E0EBF0E0808181608083EAE7F0E08081A4
:100A30008460808380818260808380818160808304
:100A40008081806880831092C10008958E3008F004
:100A50008E50877020910A0190E4299F9001112403
:100A6000822B80937C0080917A00806480937A004E
:100A700080917A0086FDFCCF8091780020917900EA
:100A800090E0922B08951F93CF93DF93182FEB01E3
:100A900061E00E94CB05209711F460E004C0CF3FD5
:100AA000D10539F461E0812FDF91CF911F910C9432
:100AB0000406E12FF0E0E859FF4FE491E330F9F04C
:100AC00048F4E130B9F0E230A1F584B5806284BD2C
:100AD000C8BD34C0E730E9F0E83019F1E43049F539
:100AE00080918000806280938000D0938B00C093BF
:100AF0008A0024C084B5806884BDC7BD1FC08091B2
:100B00008000806880938000D0938900C093880023
:100B100015C08091B00080688093B000C093B3008E
:100B20000DC08091B00080628093B000C093B4008B
:100B300005C0C038D1050CF0B5CFAFCFDF91CF9154
:100B40001F910895833081F028F4813099F082302C
:100B5000A1F008958730A9F08830B9F08430D1F43D
:100B6000809180008F7D03C0809180008F7780937B
:100B70008000089584B58F7702C084B58F7D84BDD1
:100B800008958091B0008F7703C08091B0008F7D71
:100B90008093B0000895CF93DF9390E0FC01E45878
:100BA000FF4F2491FC01E057FF4F8491882349F1C6
:100BB00090E0880F991FFC01E255FF4FA591B49179
:100BC0008C559F4FFC01C591D4919FB7611108C00E
:100BD000F8948C91209582238C93888182230AC07B
:100BE000623051F4F8948C91322F309583238C939A
:100BF0008881822B888304C0F8948C91822B8C93FB
:100C00009FBFDF91CF9108950F931F93CF93DF93F1
:100C10001F92CDB7DEB7282F30E0F901E859FF4F1A
:100C20008491F901E458FF4F1491F901E057FF4F07
:100C300004910023C9F0882321F069830E94A20552
:100C40006981E02FF0E0EE0FFF1FEC55FF4FA591FB
:100C5000B4919FB7F8948C91611103C010958123D2
:100C600001C0812B8C939FBF0F90DF91CF911F917B
:100C70000F910895FC01818D228D90E0805C9F4F43
:100C8000821B91098F7399270895FC01918D828DA4
:100C9000981731F0828DE80FF11D858D90E0089551
:100CA0008FEF9FEF0895FC01918D828D981761F071
:100CB000828DDF01A80FB11D5D968C91928D9F5F93
:100CC0009F73928F90E008958FEF9FEF089587EDC7
:100CD00097E0892B49F08DE391E0892B29F00E9460
:100CE000D70781110C943D010895FC01848DDF012B
:100CF000A80FB11DA35ABF4F2C91848D90E001968F
:100D00008F739927848FA689B7892C93A089B1897D
:100D10008C9180648C93938D848D981306C0028887
:100D2000F389E02D80818F7D80830895CF93DF93B9
:100D3000EC01888D8823C9F0EA89FB89808185FDD3
:100D400005C0A889B9898C9186FD0FC00FB607FC34
:100D5000F5CF808185FFF2CFA889B9898C9185FF75
:100D6000EDCFCE010E947506E7CFDF91CF910895B8
:100D7000CF92DF92FF920F931F93CF93DF931F9237
:100D8000CDB7DEB76C0181E0D60158968C935897A9
:100D90005B969C915B975C968C915C97981307C0CF
:100DA0005096ED91FC915197808185FD2EC0F60102
:100DB000038D10E00F5F1F4F0F731127F02EF60108
:100DC000848DF81211C00FB607FCF9CFD6015096EA
:100DD000ED91FC915197808185FFF1CFC601698328
:100DE0000E9475066981EBCF838DE80FF11DE35AF0
:100DF000FF4F6083D6015B960C935B975296ED9103
:100E0000FC915397808180620CC0D6015696ED917B
:100E1000FC91579760835096ED91FC91519780819A
:100E20008064808381E090E00F90DF91CF911F91EB
:100E30000F91FF90DF90CF900895BF92CF92DF92F5
:100E4000EF92FF92CF93DF93EC016A017B01B22E08
:100E5000E889F98982E08083411581EE58076105B0
:100E60007105A1F060E079E08DE390E0A7019601C3
:100E70000E94990D21503109410951095695479514
:100E800037952795211580E1380798F0E889F98989
:100E9000108260E874E88EE190E0A70196010E945C
:100EA000990D2150310941095109569547953795BA
:100EB0002795EC85FD853083EE85FF852083188E90
:100EC000EC89FD89B082EA89FB8980818061808319
:100ED000EA89FB89808188608083EA89FB89808137
:100EE00080688083EA89FB8980818F7D8083DF91A0
:100EF000CF91FF90EF90DF90CF90BF9008951F9219
:100F00000F920FB60F9211242F938F939F93EF930D
:100F1000FF93E0917D03F0917E038081E091830354
:100F2000F091840382FD12C09081809186038F5FCF
:100F30008F7320918703821751F0E0918603F0E0D0
:100F4000E359FC4F958F8093860301C08081FF9108
:100F5000EF919F918F912F910F900FBE0F901F9047
:100F600018951F920F920FB60F9211242F933F9353
:100F70004F935F936F937F938F939F93AF93BF93A1
:100F8000EF93FF938DE693E00E947506FF91EF913A
:100F9000BF91AF919F918F917F916F915F914F9191
:100FA0003F912F910F900FBE0F901F9018958DE6D7
:100FB00093E00E943A0621E0892B09F420E0822F79
:100FC00008951092700310926F0388EE93E0A0E0F2
:100FD000B0E08093710390937203A0937303B09376
:100FE000740385EE92E090936E0380936D0385EC1D
:100FF00090E090937A038093790384EC90E090934F
:101000007C0380937B0380EC90E090937E0380933D
:101010007D0381EC90E09093800380937F0382ECCA
:1010200090E0909382038093810386EC90E090930C
:101030008403809383031092860310928703109297
:10104000880310928903089508950E94EB040E947A
:1010500024080E94A600C7E6D6E00E94BB002097A5
:10106000E1F30E946706F9CFCF92DF92EF92FF92F1
:101070000F931F93CF93DF937C016A01EB0100E094
:1010800010E00C151D0571F06991D701ED91FC91EF
:101090000190F081E02DC7010995892B19F00F5FB0
:1010A0001F4FEFCFC801DF91CF911F910F91FF909C
:1010B000EF90DF90CF9008956115710581F0DB010D
:1010C0000D900020E9F7AD0141505109461B570B27
:1010D000DC01ED91FC910280F381E02D099480E028
:1010E00090E008950C945C08DC01ED91FC91019076
:1010F000F081E02D099461EF72E00C945C080F938D
:101100001F93CF93DF93EC010E945C088C01CE010A
:101110000E947B08800F911FDF91CF911F910F914B
:1011200008950F931F93CF93DF93EC010E947408EF
:101130008C01CE010E947B08800F911FDF91CF911F
:101140001F910F9108958F929F92AF92BF92DF925D
:10115000EF92FF920F931F93CF93DF93CDB7DEB73C
:10116000A1970FB6F894DEBF0FBECDBF7C01F42F60
:10117000D52ECB0119A2223008F42AE08E010F5D92
:101180001F4F822E912CA12CB12C6F2F7D2DA501EC
:1011900094010E94990DF22FD32ECA01015011091A
:1011A0006A3014F4E0E301C0E7E3E60FD801EC9302
:1011B000232B242B252B49F7B801C7010E945C087B
:1011C000A1960FB6F894DEBF0FBECDBFDF91CF91D1
:1011D0001F910F91FF90EF90DF90BF90AF909F9085
:1011E0008F900895CF92DF92EF92FF920F931F930B
:1011F000CF93DF93EC016A017B012115310579F46E
:10120000E881F9810190F081E02D642FDF91CF9189
:101210001F910F91FF90EF90DF90CF9009942A30AB
:101220003105E9F477FF1AC06DE20E9474088C0161
:1012300044275527BA014C195D096E097F092AE038
:10124000CE010E94A308800F911FDF91CF911F91C3
:101250000F91FF90EF90DF90CF9008952AE0B701B3
:10126000A601CE01DF91CF911F910F91FF90EF90DA
:10127000DF90CF900C94A3089A01AB01662757FD2D
:101280006095762F0C94F2080F931F93CF93DF9302
:10129000EC019A01AB01662757FD6095762F0E94FD
:1012A000F2088C01CE010E947B08800F911FDF9114
:1012B000CF911F910F9108954F925F926F927F92FD
:1012C0008F929F92AF92BF92CF92DF92EF92FF9256
:1012D0000F931F93CF93DF93EC016A017B01B22E32
:1012E0009A01AB01C701B6010E94850D882319F050
:1012F00064EF72E027C026013701E89477F82FEFFA
:101300003FEF4FE75FE7C301B2010E94850D8111F6
:101310000DC02FEF3FEF4FE75FE7C301B2010E941F
:10132000CF0B18161CF468EF72E00CC02FEF3FEFE4
:101330004FE75FE4C701B6010E941E0D1816ACF41A
:101340006CEF72E0CE01DF91CF911F910F91FF9072
:10135000EF90DF90CF90BF90AF909F908F907F9055
:101360006F905F904F900C945C082FEF3FEF4FE72A
:101370005FECC701B6010E94CF0B87FDE1CF20E0F3
:1013800030E0A901C701B6010E94CF0B87FF0AC058
:101390006DE2CE010E9474088C01F7FAF094F7F820
:1013A000F09402C000E010E0A12C60E070E080E06A
:1013B0009FE3AB1441F020E030E040E251E40E94B2
:1013C000D30BA394F6CF9B01AC01C701B6010E94D9
:1013D0006B0B6B017C010E94400C2B013C010E94B5
:1013E0006C0C9B01AC01C701B6010E946A0B6B013A
:1013F0007C012AE0B301A201CE010E94A308080FDC
:10140000191FBB2039F064E172E0CE010E945C0834
:10141000080F191F7B2C772041F120E030E040E2DB
:1014200051E4C701B6010E94220D6B017C010E94AC
:101430003B0C4B01AA2497FCA094BA2C2AE030E084
:10144000B501A401CE010E94F208080F191FC501C1
:10145000B4010E946E0C9B01AC01C701B6010E9451
:101460006A0B6B017C017A94D6CFC801DF91CF91D2
:101470001F910F91FF90EF90DF90CF90BF90AF90B2
:101480009F908F907F906F905F904F9008950C94F5
:101490005C094F925F926F927F92AF92BF92CF9210
:1014A000DF92EF92FF920F931F93CF93DF93CDB70D
:1014B000DEB729013A01621B730B840B950B298956
:1014C0003A894B895C892A193B094C095D09298BAA
:1014D0003A8B4B8B5C8B9B01AC0169897A898B8938
:1014E0009C890E94890DE418F50806091709A801CE
:1014F00097010E94BB0D2A0D3B1D4C1D5D1DCA01AD
:10150000B901DF91CF911F910F91FF90EF90DF9084
:10151000CF90BF90AF907F906F905F904F90089565
:10152000FC01808191810C94920ECF93DF93EC01AA
:1015300088819981009711F00E94920E1982188279
:101540001D821C821B821A82DF91CF9108950F9316
:101550001F93CF93DF93EC018B016F5F7F4F8881E7
:1015600099810E94210F009731F0998388831B8312
:101570000A8381E001C080E0DF91CF911F910F913C
:101580000895CF93DF93EC0188819981892B29F00D
:101590008A819B818617970760F4CE010E94A70A73
:1015A000882341F08C819D81892B19F4E881F98190
:1015B000108281E0DF91CF910895EF92FF920F9317
:1015C0001F93CF93DF93EC017B018A01BA010E9444
:1015D000C10A811104C0CE010E94950A07C01D8373
:1015E0000C83B701888199810E942710CE01DF9179
:1015F000CF911F910F91FF90EF900895FC01118200
:10160000108213821282158214826115710559F0BD
:10161000FB0101900020E9F7AF0141505109461B41
:10162000570B0C94DD0A0895EF92FF920F931F93CE
:10163000CF93DF93EC017B010C811D816115710556
:1016400011F480E016C04115510591F0040F151FEB
:10165000B8010E94C10A8823A1F3288139818C81B5
:101660009D81B701820F931F0E9427101D830C8359
:1016700081E0DF91CF911F910F91FF90EF9008953E
:10168000CF93DF9300D0CDB7DEB769831A8241E0F4
:1016900050E0BE016F5F7F4F0E94140B0F900F90C0
:1016A000DF91CF910895FC0180819181009711F025
:1016B0000C94EF0F60E070E0CB010895FC01808195
:1016C0009181009711F00C94EB0F60E070E0CB017A
:1016D000089508955058BB27AA270ED075C166D12A
:1016E00030F06BD120F031F49F3F11F41EF45BC158
:1016F0000EF4E095E7FB51C1E92F77D180F3BA17DB
:10170000620773078407950718F071F49EF58FC17F
:101710000EF4E0950B2EBA2FA02D0B01B90190010C
:101720000C01CA01A0011124FF27591B99F0593F50
:1017300050F4503E68F11A16F040A22F232F342F98
:101740004427585FF3CF469537952795A795F040E6
:101750005395C9F77EF41F16BA0B620B730B840BFB
:10176000BAF09150A1F0FF0FBB1F661F771F881FB3
:10177000C2F70EC0BA0F621F731F841F48F487950B
:1017800077956795B795F7959E3F08F0B3CF9395FA
:10179000880F08F09927EE0F979587950895D9D06F
:1017A00008F481E008950CD00FC107D140F0FED0BD
:1017B00030F021F45F3F19F0F0C0511139C1F3C08E
:1017C00014D198F39923C9F35523B1F3951B550B05
:1017D000BB27AA2762177307840738F09F5F5F4F04
:1017E000220F331F441FAA1FA9F333D00E2E3AF045
:1017F000E0E830D091505040E695001CCAF729D05F
:10180000FE2F27D0660F771F881FBB1F26173707AD
:101810004807AB07B0E809F0BB0B802DBF01FF27DD
:1018200093585F4F2AF09E3F510568F0B6C000C143
:101830005F3FECF3983EDCF3869577956795B79517
:10184000F7959F5FC9F7880F911D9695879597F932
:101850000895E1E0660F771F881FBB1F62177307AB
:101860008407BA0720F0621B730B840BBA0BEE1FC0
:1018700088F7E095089504D06894B111D9C008950F
:10188000BCD088F09F5790F0B92F9927B751A0F09E
:10189000D1F0660F771F881F991F1AF0BA95C9F704
:1018A00012C0B13081F0C3D0B1E00895C0C0672F3D
:1018B000782F8827B85F39F0B93FCCF386957795B4
:1018C0006795B395D9F73EF490958095709561959D
:1018D0007F4F8F4F9F4F0895E89409C097FB3EF4C8
:1018E00090958095709561957F4F8F4F9F4F99236D
:1018F000A9F0F92F96E9BB279395F69587957795EB
:101900006795B795F111F8CFFAF4BB0F11F460FFAA
:101910001BC06F5F7F4F8F4F9F4F16C0882311F002
:1019200096E911C0772321F09EE8872F762F05C016
:10193000662371F096E8862F70E060E02AF09A95B1
:10194000660F771F881FDAF7880F9695879597F9A6
:101950000895990F0008550FAA0BE0E8FEEF161640
:101960001706E807F907C0F012161306E407F50793
:1019700098F0621B730B840B950B39F40A2661F007
:10198000232B242B252B21F408950A2609F4A140AA
:10199000A6958FEF811D811D089597F99F6780E8B7
:1019A00070E060E008959FEF80EC089500240A94B1
:1019B0001616170618060906089500240A9412162A
:1019C0001306140605060895092E0394000C11F45D
:1019D000882352F0BB0F40F4BF2B11F460FF04C00A
:1019E0006F5F7F4F8F4F9F4F089557FD9058440F63
:1019F000551F59F05F3F71F04795880F97FB991F6E
:101A000061F09F3F79F0879508951216130614062A
:101A1000551FF2CF4695F1DF08C0161617061806B7
:101A2000991FF1CF86957105610508940895E89492
:101A3000BB2766277727CB0197F908958ADF08F43B
:101A40008FEF08950BD0C0CFB1DF28F0B6DF18F0CC
:101A5000952309F0A2CFA7CF1124EACFC6DFA0F3C8
:101A6000959FD1F3950F50E0551F629FF001729F33
:101A7000BB27F00DB11D639FAA27F00DB11DAA1F52
:101A8000649F6627B00DA11D661F829F2227B00D9F
:101A9000A11D621F739FB00DA11D621F839FA00D2A
:101AA000611D221F749F3327A00D611D231F849F7A
:101AB000600D211D822F762F6A2F11249F575040D1
:101AC0008AF0E1F088234AF0EE0FFF1FBB1F661F6C
:101AD000771F881F91505040A9F79E3F510570F025
:101AE0005CCFA6CF5F3FECF3983EDCF3869577950D
:101AF0006795B795F795E7959F5FC1F7FE2B880F20
:101B0000911D9695879597F9089523DF880B990B7A
:101B10000895DB018F939F930E94DA0DBF91AF91DF
:101B2000A29F800D911DA39F900DB29F900D112437
:101B30000895A1E21A2EAA1BBB1BFD010DC0AA1F0E
:101B4000BB1FEE1FFF1FA217B307E407F50720F026
:101B5000A21BB30BE40BF50B661F771F881F991FA1
:101B60001A9469F760957095809590959B01AC01EA
:101B7000BD01CF010895052E97FB1EF400940E942D
:101B8000D20D57FD07D00E94990D07FC03D04EF4EB
:101B90000C94D20D50954095309521953F4F4F4F65
:101BA0005F4F089590958095709561957F4F8F4F09
:101BB0009F4F08950E94EB0DA59F900DB49F900D2F
:101BC000A49F800D911D11240895EE0FFF1F059015
:101BD000F491E02D0994A29FB001B39FC001A39F8F
:101BE000700D811D1124911DB29F700D811D112456
:101BF000911D0895CF93DF938230910510F482E018
:101C000090E0E0910C04F0910D0420E030E0A0E0C1
:101C1000B0E0309739F14081518148175907B8F049
:101C20004817590771F482819381109729F0139610
:101C30009C938E9312972CC090930D0480930C0468
:101C400027C02115310531F04217530718F0A901BB
:101C5000DB0101C0EF019A01BD01DF010280F381C8
:101C6000E02DD7CF21153105F9F0281B390B243091
:101C7000310580F48A819B816115710521F0FB019A
:101C80009383828304C090930D0480930C04FE011F
:101C9000329644C0FE01E20FF31F819391932250CC
:101CA0003109398328833AC020910A0430910B040A
:101CB000232B41F4209102013091030130930B0456
:101CC00020930A0420910001309101012115310572
:101CD00041F42DB73EB74091040150910501241BFA
:101CE000350BE0910A04F0910B04E217F307A0F41E
:101CF0002E1B3F0B2817390778F0AC014E5F5F4F62
:101D00002417350748F04E0F5F1F50930B04409384
:101D10000A048193919302C0E0E0F0E0CF01DF91EB
:101D2000CF910895CF93DF93009709F487C0FC010A
:101D3000329713821282C0910C04D0910D04209727
:101D400081F420813181280F391F80910A049091FC
:101D50000B048217930779F5F0930B04E0930A04C0
:101D60006DC0DE0120E030E0AE17BF0750F41296E0
:101D70004D915C9113979D014115510509F1DA01CF
:101D8000F3CFB383A28340815181840F951F8A17BB
:101D90009B0771F48D919C911197840F951F02966A
:101DA0009183808312968D919C9113979383828364
:101DB0002115310529F4F0930D04E0930C043EC085
:101DC000D9011396FC93EE9312974D915D91A40F58
:101DD000B51FEA17FB0779F480819181840F951F65
:101DE0000296D90111969C938E93828193811396CA
:101DF0009C938E931297E0E0F0E08A819B8100979C
:101E000019F0FE01EC01F9CFCE010296288139814B
:101E1000820F931F20910A0430910B042817390771
:101E200069F4309729F410920D0410920C0402C04A
:101E300013821282D0930B04C0930A04DF91CF91D6
:101E40000895A0E0B0E0E7E2FFE00C94C511EC01DA
:101E5000CB01209719F40E94FA0DB8C0FE01E60FDD
:101E6000F71F9E0122503109E217F30708F4ACC0B6
:101E7000D9010D911C91119706171707B8F005307D
:101E8000110508F49FC0A80144505109461757078F
:101E900008F498C002501109061B170B0193119307
:101EA0006D937C93CF010E94920E8CC05B01A01AAF
:101EB000B10A4E01800E911EA0910C04B0910D0448
:101EC000612C712C60E070E0109709F449C0A815EE
:101ED000B905C9F5ED90FC901197670142E0C40E79
:101EE000D11CCA14DB0478F147018A189B086401ED
:101EF00042E0C40ED11C1296BC9012971396AC917E
:101F0000B5E0CB16D10440F0B282A38391828082E7
:101F1000D9018D939C9309C00E5F1F4F0E0D1F1D9D
:101F2000F90111830083EB2DFA2F6115710531F052
:101F3000DB011396FC93EE93129744C0F0930D04CB
:101F4000E0930C043FC06D917C9111976616770663
:101F500008F43B01BD0112960D90BC91A02DB4CFA9
:101F600060910A0470910B0468157905E9F468160C
:101F70007906D0F4409100015091010141155105BD
:101F800041F44DB75EB76091040170910501461BA5
:101F9000570BE417F507C0F4F0930B04E0930A0421
:101FA000F901918380830EC00E94FA0D7C01009795
:101FB00059F0A801BE010E941E10CE010E94920E8F
:101FC000C70104C0CE0102C080E090E0CDB7DEB70B
:101FD000EEE00C94E111662777270C9443101F93D1
:101FE000FC0199278827BC01E89411911032E9F38C
:101FF000193010F01E30C8F31B3251F01D3249F475
:10200000689406C00E942E10610F711D811D911DE4
:10201000119110531A30B0F33EF49095809570955D
:1020200061957F4F8F4F9F4F1F91089591118EC1E2
:10203000803219F089508550D0F70895FB01DC01FA
:1020400002C001900D9241505040D8F70895FB0115
:10205000DC0101900D920020E1F70895592F482FDF
:10206000372F262F660F771F881F991F660F771F40
:10207000881F991F620F731F841F951F660F771F9C
:10208000881F991F0895A0E0B0E0E9E4F0E10C9406
:10209000C7118B016115710521F0DB018C9311963D
:1020A0009C93EC015E01BFEFAB1ABB0A7501C880BF
:1020B0008C2D90E00E941610892B11F0E501F2CFD3
:1020C000EDE2CE1208C07E01F2E0EF0EF11CC980F5
:1020D000DD24D39409C02BE2C21205C07E0142E088
:1020E000E40EF11CC980D12CE701219743E050E0B8
:1020F00060EC70E0CE010E94A911892BC1F42396F7
:1021000045E050E06BEB70E0CE010E94A911892BF5
:1021100009F425960115110519F0D801CD93DC932A
:10212000D11006C160E070E080E89FE70AC143E09B
:1021300050E068EB70E0CE010E94A911892B59F4A0
:102140000115110509F4F9C0B2E0EB0EF11CF8011C
:10215000F182E082F2C0F70160E070E0CB01C0E004
:10216000D0E07F01A0EDAA2EAC0C29E02A1530F1B9
:102170004D2D4260B42E2D2D2870D2FE04C02111A9
:1021800025C0219623C021112197A5E0B0E09B0135
:10219000AC010E94DA0D660F771F881F991F6A0D28
:1021A000711D811D911D6839A9E97A078A07A9E186
:1021B0009A0760F0BD2DB660BB2E08C02EEFA212AC
:1021C0000AC0D3FC50C04D2D4860B42E3196D701C3
:1021D000CC90DB2CC6CF2C2D2F7D253409F043C0AD
:1021E000A081AD3241F4BD2DB061DB2E7F0122E034
:1021F000E20EF11C0CC07F01AB3231F04FEFE41A5C
:10220000F40A21E030E006C0A2E0EA0EF11CA18150
:1022100022E030E0A053AA3018F0E21AF30A23C0FB
:10222000F70120E030E02038BCE03B075CF4A90176
:10223000440F551F440F551F240F351F220F331F06
:102240002A0F311DAF014F5F5F4F7A01A081A0536C
:10225000AA3010F4FA01E7CFD4FE03C031952195DE
:102260003109C20FD31FD1FE09C00115110531F08C
:10227000E1E0EE1AF108D801ED92FC920E946C0C9C
:102280002D2D2370233019F04B015C0106C04B014A
:102290005C01B7FAB094B7F8B09420E030E0A9013F
:1022A000C501B4010E94CF0B882309F43EC0D7FFBB
:1022B00006C0D195C195D10907ED10E002C00FEE1F
:1022C00010E06801B8E1CB1AD10890E2E92EF12CB8
:1022D000CE15DF0574F0F8012591359145915491A3
:1022E000C501B4010E94220D4B015C01CE19DF092A
:1022F000EFCF04501109F594E7940C151D0541F733
:102300008A2D880F8B2D881F8F3F49F020E030E009
:10231000A901C501B4010E94CF0B811106C082E260
:1023200090E090930F0480930E04C501B40109C09E
:1023300060E070E080E89FEF04C060E070E080EC57
:102340009FE7CDB7DEB7ECE00C94E311992788271F
:102350000895FB01DC014150504088F08D9181349B
:102360001CF08B350CF4805E659161341CF06B358C
:102370000CF4605E861B611171F3990B0895881B44
:10238000FCCF2F923F924F925F926F927F928F92EB
:102390009F92AF92BF92CF92DF92EF92FF920F93F4
:1023A0001F93CF93DF93CDB7DEB7CA1BDB0B0FB6FE
:1023B000F894DEBF0FBECDBF09942A8839884888BB
:1023C0005F846E847D848C849B84AA84B984C88451
:1023D000DF80EE80FD800C811B81AA81B981CE0F48
:1023E000D11D0FB6F894DEBF0FBECDBFED0108952D
:0423F000F894FFCF8F
:1023F40000001004800001000000014D6F746F7232
:10240400206472697665722074657374696E6700FE
:102414004D6F746F7220270027206973206E6F74CC
:1024240020612076616C6964206F7074696F6E2E10
:102434000049643A20002C2073746D743A20002CF7
:102444002061637475616C506F73436D643A20004E
:102454002C20526177204D6F746F7220506F733A45
:102464002000506F736974696F6E206F7574206FEC
:10247400662072616E67652E2020506C65617365FD
:102484002073656C656374206265747765656E207E
:102494003020616E64203130302E002C2052656370
:1024A400656976656420706F7320636F6D6D616E0E
:1024B400643A20002C2061637475616C506F73431F
:1024C4006F6D6D616E643A20002C20706F74207003
:1024D4006F733A20002C205370656564206F757407
:1024E400206F662072616E67652E202043686F6FCF
:1024F4007365206265747765656E203020616E6453
:10250400203130302E002C205261772073706565A5
:10251400643A20002C205370656564206D617070EE
:10252400656420746F3A20002C20746F6C657261AE
:102534006E6365206F7574206F662072616E6765C7
:102544002E202043686F6F7365206265747765651C
:102554006E203020616E642031302E002C20546FA8
:102564006C6572616E63652073657420746F3A20C4
:10257400002C20706F736974696F6E20636F6D6DCA
:10258400616E643A20002C2063757272656E74204B
:10259400706F736974696F6E3A20002C20537065F4
:1025A40065643A20002C20546F6C6572616E63651B
:1025B4003A20002C20636F6D6D616E643A20270011
:1025C40027206E6F7420737570706F727465642E3B
:1025D4000000000000B80634083A06530645069683
:1025E400060D0A006E616E00696E66006F76660005
:00000001FF
